:020000040800F2
:10000000B00700203D0200082F260008E32000086A
:100010002D260008CB060008B72F000800000000BE
:10002000000000000000000000000000DD270008C4
:10003000CD0600080000000031260008DF27000878
:10004000570200085702000857020008570200082C
:100050005702000857020008CF06000857020008A0
:10006000570200085702000857020008570200080C
:1000700057020008570200085702000857020008FC
:1000800057020008570200085702000857020008EC
:1000900057020008570200085702000857020008DC
:1000A00057020008570200085702000857020008CC
:1000B000570200080000000000000000570200087E
:1000C000570200080000000000000000570200086E
:1000D000000000005702000857020008000000005E
:1000E000570200085702000800000000000000004E
:1000F0000000000000000000000000000000000000
:10010000000000000000000000000000570200088E
:10011000000000000000000057020008570200081D
:10012000570200085702000857020008570200084B
:10013000570200080000000000000000000000005E
:10014000570200085702000857020008570200082B
:10015000570200085702000857020008570200081B
:10016000570200085702000857020008000000006C
:1001700057020008570200080000000000000000BD
:1001800057020008570200085702000800F002F862
:1001900000F044F80AA090E8000C82448344AAF1DD
:1001A0000107DA4501D100F039F8AFF2090EBAE8DB
:1001B0000F0013F0010F18BFFB1A43F0010318479B
:1001C000B4370000D4370000103A24BF78C878C193
:1001D000FAD8520724BF30C830C144BF04680C604D
:1001E000704700000023002400250026103A28BF95
:1001F00078C1FBD8520728BF30C148BF0B60704799
:10020000752900F02D81732900F0218200207047AC
:100210001FB503F057FB1FBD10B510BD00F01BFA52
:100220001146FFF7F5FF03F035F900F039FA03B492
:10023000FFF7F2FF03BC00F041FA000009488047D5
:1002400009480047FEE7FEE7FEE7FEE7FEE7FEE7B8
:10025000FEE7FEE7FEE7FEE704480549054A064BD0
:1002600070470000712800088D010008B0010020CF
:10027000B0070020B0030020B003002053EA020CB6
:1002800000F069802DE9F04B4FF00006002B1FBFF6
:10029000B3FA83F503FA05F424FA05F65E4012BFBB
:1002A0001643B2FA82F502FA05F4C5F120051EBF25
:1002B00022FA05FC44EA0C04203556EA044C4FEAC5
:1002C000144418BF641C4FF000084FF0000990421E
:1002D00071EB030C39D3002919BFB1FA81F701FA88
:1002E00007F6B0FA80F700FA07F6C7F120071EBF3D
:1002F00020FA07FC46EA0C062037B6FBF4FCA7EB15
:100300000507103F07F01F0BCBF120060CFA0BFB83
:100310002CFA06F644BFB3460026202FA4BF5E4643
:100320004FF0000B5BEA060C08BF4FF0010B19EB16
:100330000B09ABFB027C48EB0608C01B06FB02CC9A
:100340000BFB03CC71EB0C01C1E70B4602464146A7
:100350004846BDE8F08B13B54FF000004FF00001A8
:10036000AFF30080BDE81C40704700000FB47CB5BF
:100370000C0009AA009001D02044401E084B7B4489
:1003800069460190089800F030F905461CB100203C
:10039000694600F03DF928467CBC5DF814FB00007E
:1003A000990200002DE9F0410E460446002020622B
:1003B0002046E168884730B3252805D0D4E90121DB
:1003C0009047206A401CF2E7E168204600278847F2
:1003D000050018D0A5F14100192802D820354FF4A6
:1003E00000673246294620462760FFF709FF40B1E3
:1003F000012804D0F61D26F007060836D8E7361D7A
:10040000D6E72846DAE7206ABDE8F08170B50C46E9
:100410000546012A05D02878800600D5EA69002320
:1004200002E0012305E05B1C934202D2E05C00285D
:10043000F9D1A869E618C01AA861286A1844286288
:100440002846AFF3008004E0D5E9012114F8010B40
:100450009047B442F8D32846AFF3008070BD000047
:100460002DE9F0410646002410687529314616A58D
:1004700010D0AFF30080002802DA404213A507E055
:1004800031688A0701D512A502E0490704D511A5F4
:10049000012401E0AFF3008000210A2206F12407C5
:1004A00009E0B0FBF2FCB0FBF2F302FB1C003030C1
:1004B00078541846491C0028F3D123462A46304672
:1004C000BDE8F04100F032B8000000002D0000004F
:1004D0002B000000200000004FF0000200B5134682
:1004E00094469646203922BFA0E80C50A0E80C5054
:1004F000B1F12001BFF4F7AF090728BFA0E80C5005
:1005000048BF0CC05DF804EB890028BF40F8042BFD
:1005100008BF704748BF20F8022B11F0804F18BF6A
:1005200000F8012B70477047704770472DE9F0477E
:100530000D4699469246044600F124080168880653
:1005400004D5E06921F01001216000E00120A842FB
:1005500001DD471B00E00027A1697A1902EB0900C1
:10056000081AA0612078C00602D42046AFF30080AC
:10057000002608E0D4E901211AF806009047206A15
:10058000401C761C20624E45F4DB2078C0060AD55C
:100590002046AFF3008006E0D4E9012130209047E7
:1005A000206A401C2062381EA7F10107F4DC07E036
:1005B000D4E9012118F805009047206A401C206208
:1005C000281EA5F10105F3DC2046AFF3008020785A
:1005D000000602D50220BDE8F0870120FBE70000FD
:1005E00001694A1C02610878704700B58FB0CDE9F7
:1005F00001310021059105497944CDE903101146E7
:100600006846FFF7CFFE0FB000BD0000E5FFFFFF1B
:100610000A6802F8010B0A607047D1E900239A4288
:1006200002D2531C0B601070704710B5436913B1B0
:10063000AFF3008001E0FFF7E9FE012010BD127862
:1006400000F124010A7000224A700122EDE71168CE
:100650004FF0FF32E9E7754600F02CF8AE46050092
:100660006946534620F00700854618B020B5FFF7CD
:10067000F3FDBDE820404FF000064FF000074FF0BB
:1006800000084FF0000B21F00701AC46ACE8C009B0
:10069000ACE8C009ACE8C009ACE8C0098D467047B9
:1006A00010B50446AFF300802046BDE81040FFF7C8
:1006B000BEBD0000004870474C01002001491820D1
:1006C000ABBEFEE7260002007047FEE77047012040
:1006D00000F032B872B6FEE770B5044600F04CF98F
:1006E0000546601C02D004480078044400F044F938
:1006F000401BA042FAD370BD1800002010B501289D
:1007000012D100F039F904460121094800F021F91D
:10071000002809D10748C168611AC82904D901789D
:1007200019B100210170C46010BD0121FAE7000079
:100730000004004800000020044910B50A68024285
:1007400002D00860FFF7DAFF10BD0000140401407A
:100750002DE9F04FDFF8E091002301270326A9F1EE
:10076000040B85B00F2509F1040AABF1040EDBE0A0
:1007700007FA03FC12EA0C027ED00C7904F00304A1
:10078000012C01D0022C20D1846800945C0006FA70
:1007900004F80494009C24EA08040094D1F80C8026
:1007A000049C08FA04F8009C48EA0408C0F8088091
:1007B000446824EA0C0491F804C0CCF3001C0CFA41
:1007C00003FC4CEA040CC0F804C00C79E443A40711
:1007D0000DD0D0F80CC04FEA430806FA08F42CEA12
:1007E000040C8C6804FA08F444EA0C04C4600C7924
:1007F00004F00304022C19D1DC0800EB84040294F9
:10080000246A4FEA437C4FEADC6CCDF810C005FA4D
:100810000CFC24EA0C04D1F81080DDF810C008FAB2
:100820000CF848EA0408029CC4F8208004684FEAE7
:10083000430806FA08FC24EA0C0491F804C00CF002
:10084000030C0CFA08FC4CEA040CC0F800C04C681D
:1008500014F4403F67D0394CD4F860C04CF0010C20
:10086000C4F860C0246E23F0030C04F0010400946B
:10087000334C6444029400E055E0A4684FEA837C62
:100880004FEA1C7805FA08FC24EA0C04B0F1904FFA
:1008900006D0DFF8B0C0604505D14FF0010C0BE089
:1008A0004FF0000C08E0DFF8A0C0604502D14FF027
:1008B000020C01E04FF0070C0CFA08FC4CEA040CA7
:1008C000029CC4F808C0D9F80040CC46D1F8048096
:1008D00094435FEAC82800D51443CCF80040DAF806
:1008E0000040D446D1F8048094435FEA882800D5BC
:1008F0001443CCF80040DBF80040DC46D1F804801B
:1009000094435FEA883800D51443CCF80040DEF801
:100910000040F446D1F8048094435FEAC83800D51B
:100920001443CCF800405B1C0C682246DC407FF48A
:100930001FAF05B000F00AB80804014000100240E3
:1009400000000140000400480008004830BCBDE839
:10095000C08F0069084000D001207047426921EA39
:1009600002030A4043EA0241816170470AB1816192
:10097000704781627047000001488068704700003E
:100980001800002090F84120202A24D190F840201F
:10099000012A20D0012280F84020242280F8412022
:1009A0000268136823F0010313600268136823F4DC
:1009B00080531360026813680B43136001680A6870
:1009C00042F001020A60202180F84110002180F8E5
:1009D0004010084670470220704790F84120202AB6
:1009E00022D190F84020012A1ED0012280F8402018
:1009F000242280F841200268136823F00103136069
:100A00000268136823F4706343EA012111600168EE
:100A10000A6842F001020A60202180F8411000219A
:100A200080F84010084670470220704770B50400F7
:100A300004D094F84100002510B106E0012070BDFB
:100A400084F84050204600F0B3F9242084F8410097
:100A50002068016821F0010101606068216820F0D0
:100A6000706008612068816821F400418160E0685D
:100A70000128A06807D040F4044021688860E0683D
:100A8000022803D006E040F40040F6E721684FF466
:100A90000060486020684168114A11434160206845
:100AA000C16821F40041C160D4E904010843A1698F
:100AB00040EA01202168C860D4E9070108432168A1
:100AC00008602068016841F0010101606564202030
:100AD00084F84100256384F84250002070BD000076
:100AE000008000022DE9FF4F83B00446DDE9108746
:100AF00090F84100DDF848909A469346202874D13A
:100B00005FEA080014D09FB194F8400001286CD02F
:100B1000012084F84000FFF72FFF064601220090D5
:100B20001923D103204601F0FBFB002871D103E01B
:100B30004FF4007060646CE0222084F84100402093
:100B400084F8420000256564C4F8248067856563E5
:100B5000CDE9009653465A462046049901F064FBBD
:100B600010B184F8405054E0618D3548FF274FF0B4
:100B700080784FF0007AFF2904D927853A4643460A
:100B8000009005E0618D2185009094F8282053465F
:100B90002046049901F0ACFB4B460022042120467C
:100BA000009601F0BDFBA0BB2068406A616A087036
:100BB000606A401C6062208D401E81B22185608D7C
:100BC000401E6085608DD8B1D1B94B46002280218E
:100BD0002046009601F0A4FBD8B9608DFF2805D906
:100BE00027853A464346009506E026E0608D20853D
:100BF000009594F8282053462046049901F078FB8C
:100C0000608D0028C8D132464946204601F0B4FB29
:100C100018B1012007B000F017B821682020C86182
:100C200021684A68074B1A404A6084F8410084F8FA
:100C3000425084F840500020ECE70220EAE7000030
:100C40000024008000E800FE30BCBDE8C08F00003A
:100C50002DE9FF4F83B00446DDE9108790F841008D
:100C6000DDF848909A469346202871D15FEA080043
:100C700014D09FB194F84000012869D0012084F875
:100C80004000FFF779FE0646012200901923D103A8
:100C9000204601F045FB00286ED103E04FF40070C0
:100CA000606469E0212084F84100402084F842001B
:100CB00000256564C4F8248067856563CDE90096E6
:100CC00053465A462046049901F0E0FA10B184F8E0
:100CD000405051E0608DFF274FF080784FF0007A50
:100CE000FF2804D927853A464346009505E0608DE4
:100CF0002085009594F8282053462046049901F059
:100D0000F7FA32464946204601F05CFBA0BB606A18
:100D1000216800788862606A401C6062608D401EB5
:100D20006085208D401E80B22085618DD9B1D0B9FB
:100D30004B46002280212046009601F0F1FAD8B9F6
:100D4000608DFF2805D927853A464346009506E081
:100D500026E0608D2085009594F828205346204693
:100D6000049901F0C5FA608D0028CAD1324649467F
:100D7000204601F001FB18B1012007B000F014B8C3
:100D800020682021C16120684268064B1A404260F9
:100D900084F8411084F8425084F840500020ECE779
:100DA0000220EAE700E800FE30BCBDE8C08F00008A
:100DB00030B59BB00446142115A8FFF78DFB5421D4
:100DC0006846FFF789FB18492068884229D14020EE
:100DD000002500900B95684600F006F908B1FFF772
:100DE00079FC124CE06C40F00100E064E06C15A965
:100DF00000F001001A904FF4C06015901220CDE968
:100E0000160503201890042019904FF09040FFF72A
:100E10009FFCA06D40F40010A065A06D00F40010D0
:100E20001A901BB030BD000000540040001002407A
:100E300002488168027811448160704718000020E0
:100E400010B50024032000F071F8002000F008F82D
:100E500008B1012401E000F025F8204610BD000093
:100E600070B50E4E05460024307898B14FF47A7173
:100E7000B1FBF0F00A490968B1FBF0F000F0C2FDE7
:100E800040B9102D06D200222946501E00F02EF83F
:100E9000756000E00124204670BD000018000020AD
:100EA00024000020094808B5016E41F001010166E7
:100EB000016E01F001010091816D41F08051816569
:100EC000806D00F08050009008BD000000100240CE
:100ED000002809DB00F01F02012191404009800039
:100EE00000F1E020C0F8001170470000F0B40E4B94
:100EF0001B680C46C3F30223C3F10705042D00D978
:100F00000425191D072901D2002300E0DB1E01265C
:100F100006FA05F1491E214099409E40761E164072
:100F20003143F0BC02F085BA0CED00E0064900F058
:100F3000070208684FF6FF03184040EA0220034A00
:100F400010430860704700000CED00E00000FA0557
:100F50001649B0F5007F0868C0F3412009D0022887
:100F600005D0086820F4C06040F48060086000206C
:100F700070470128FBD0086820F4C06040F400707E
:100F800008600B483222006850430A4AB0FBF2F076
:100F9000401C00E0401E4A69520501D50028F9D1E5
:100FA00048694005E3D50320704700000070004009
:100FB0002400002040420F000248006800F4C06096
:100FC00070470000007000400248016841F48071E1
:100FD00001607047007000400248016841F0040160
:100FE00001607047001002402DE9F84F04460027C9
:100FF00000889C4D3E46000515D5E06B60B1B0F50C
:10100000000F04D0B0F5400F2BD001270AE0E868AC
:1010100040F48030E86024E00021201D01F00AFB4C
:1010200007001ED03E462068800338D5A86D4FF0DB
:101030000008C00009D4A86D40F08050A865A86DD4
:101040004FF0010800F080500090DFF81CA2DAF8A1
:10105000001041F48071CAF80010FFF78DFC814642
:1010600010E0D5F88800E16B20F440000843C5F893
:101070008800D8E7FFF780FCA0EB0900022801D91F
:10108000032704E0DAF80000C005F3D5EFB33E46CD
:10109000B8F1000F03D0A86D20F08050A86520782B
:1010A000C00707D0D5F88800216A20F00300084364
:1010B000C5F888002078800707D5D5F88800616AD0
:1010C00020F00C000843C5F888002078800607D57A
:1010D000D5F88800A16A20F440600843C5F888006C
:1010E0002088800507D5D5F88800616B20F4402062
:1010F0000843C5F888002088400509D5D5F8880040
:10110000A16B20F44010084300E02EE0C5F88800F1
:101110002078400607D5D5F88800E16A20F44050D1
:101120000843C5F888002088C00507D5D5F8880091
:10113000216B20F440300843C5F8880020884FF028
:10114000006780044FF080684ED5D5F88800216C88
:1011500020F040600843C5F88800206CB8423BD1BD
:10116000E86840F48010E8603EE0D5F8900010F4A4
:10117000407014D0216D814211D0D5F89000D5F87F
:10118000901020F4407041F48031C5F89010D5F8EB
:10119000901021F48031C5F89010C5F89000C00778
:1011A00011D0FFF7E9FB074641F2883907E000BF9D
:1011B000FFF7E2FBC11B494501D9032668E7D5F8D3
:1011C00090008007F4D5D5F89000216D20F4407090
:1011D0000843C5F890005BE7404505D10121201D7B
:1011E00001F028FA00B106462068400317D5D5F86B
:1011F0008800616C20F040600843C5F88800606C8E
:10120000B84204D1E86840F48010E86007E0404547
:1012100005D10121201D01F00DFA00B106462088FC
:10122000400411D5D5F88800A16C20F04050084347
:10123000C5F88800A06CB0F1805F05D10221201DA7
:1012400001F0F8F900B106462088000406D555F8EB
:10125000880FE16C20F0804008432860304600F0A1
:1012600005B80000001002400070004018BCBDE846
:10127000E08F00002DE9F0470F4605006BD0494E86
:10128000306800F00700B84209D2306820F007004B
:1012900038433060306800F00700B8425BD12878EE
:1012A000414C80070AD5A868A16801F0F001884286
:1012B00004D9A16821F0F0010143A1602878C0079A
:1012C0002CD06868032811D0022812D0216898B168
:1012D000490500293FDAA16821F003010143A1601B
:1012E000FFF74AFB804641F2883910E02168890106
:1012F000EFE721688903ECE78907EAE7FFF73CFBA2
:10130000A0EB0801494502D90320BDE8F087A06899
:10131000696800F00C00B0EB810FEFD128788007EE
:101320000AD5A868A16801F0F001884204D2A1683A
:1013300021F0F0010143A160306800F00700B842DD
:101340000BD9306820F0070038433060306800F077
:101350000700B84201D00120D7E72878400705D51B
:10136000A068E96820F4E0600843A06028780007DE
:1013700006D5A068296920F4605040EAC100A06049
:1013800000F03EF8A168094AC1F30311515C01F075
:101390001F01C8400649086006480068BDE8F047DC
:1013A000FFF75EBD0020024000100240D038000868
:1013B000240000201C0000200548064900688968B8
:1013C000054AC1F30221515C01F01F01C84070477A
:1013D000240000200010024010390008054806498A
:1013E00000688968054AC1F3C221515C01F01F0100
:1013F000C840704724000020001002401039000847
:1014000070B52549002318468A68CC6812F00C0292
:1014100004F00306214C4FEA640509D00C2A05D0DC
:10142000042A32D0082A00D1284670BD012E10D1DE
:101430000B681B0704D4D1F89430C3F3032302E0F4
:101440000B68C3F30313164E56F82330DAB10C2A97
:10145000EBD1C86800F00300022818D0032818D088
:101460001846CA68CB68C2F30212C3F3062343438B
:10147000521CB3FBF2F2C868C0F34160401C40004C
:10148000B2FBF0F070BD184670BD204670BD20461E
:10149000E7E72846E5E70000001002400024F400DA
:1014A000E03800082DE9F84304006FD0FA4DA86831
:1014B00000F00C06E86800F003072078C00664D549
:1014C00076B10C2E01D1012F0AD0A069002828681E
:1014D0007AD040F001002860FFF74EFA80465DE0C8
:1014E0002868800702D5A0690028DED0216A286814
:1014F000000703D5286800F0F00004E0D5F8940058
:10150000F02202EA1010814216D9084601F028F9AB
:1015100000283BD1286840F0080028602868216A2C
:1015200020F0F000084328606868E16920F47F40FB
:1015300040EA0120686016E0286840F00800286052
:101540002868216A20F0F000084328606868E16993
:1015500020F47F4040EA0120686026B9206A01F04B
:10156000FFF80028D5D1FFF74BFFA968CB4AC1F39C
:101570000311515C01F01F01C840C9490860C94806
:101580000068FFF76DFC00287ED12EE0CAE000BFA6
:10159000FFF7F2F9A0EB0800022876D82868800748
:1015A000F6D5286840F0080028602868216A20F0F5
:1015B000F000084328606868E16920F47F4040EA51
:1015C0000120686011E0FFE720F001002860FFF7CC
:1015D000D3F9804606E000BFFFF7CEF9A0EB080084
:1015E0000228DAD828688007F6D42078C00740D0CF
:1015F000082E18D00C2E01D1032F14D06068B0F53E
:10160000803F17D0B0F5A02F286817D020F4803085
:101610002860286820F4802028606068E0B1FFF727
:10162000ABF9804614E02868800322D56068002862
:1016300078D01EE0286840F48030EDE740F4802048
:101640002860F7E7FFF798F9A0EB08006428A4D812
:1016500028688003F6D50CE0FFF78EF9804605E098
:10166000FFF78AF9A0EB0800642896D82868800361
:10167000F6D4207880073BD5042E11D00C2E01D152
:10168000022F0DD0E06801E0AAE1FFE00028286801
:101690001ED040F480702860FFF76EF907460CE01A
:1016A000286840050CD5E0680028C1D008E000BFDC
:1016B000FFF762F9C01B022893D828684005F7D5C8
:1016C0006868217C20F0F85040EA016068600FE013
:1016D00020F480702860FFF74FF9074605E000BF4F
:1016E000FFF74AF9C01B0228B1D828684005F7D493
:1016F0002078000729D560690028D5F8940012D019
:1017000040F00100C5F89400FFF736F9074604E001
:10171000FFF732F9C01B022899D8D5F8940080074A
:10172000F6D512E02BE120F00100C5F89400FFF798
:1017300023F9074605E000BFFFF71EF9C01B02288A
:1017400085D8D5F894008007F6D42078400766D570
:10175000A86D0027C00008D4A86D40F08050A8658F
:10176000A86D012700F0805000904F480168C9051E
:1017700012D40168814641F480710160FFF7FCF8E2
:10178000804605E0FFF7F8F8A0EB080002287DD8B6
:10179000D9F80000C005F5D5A068012816D00528A5
:1017A000D5F8900017D020F00100C5F89000D5F8CA
:1017B000900020F0040000BFC5F89000A06841F23E
:1017C0008839C0B1FFF7D8F880460FE0D5F890000F
:1017D00040F00100F0E740F00400C5F89000F5E7A4
:1017E000FFF7CAF8A0EB080149454FD8D5F890009B
:1017F0008007F5D50EE0FFF7BFF8804606E000BF92
:10180000FFF7BAF8A0EB080149453FD8D5F890009A
:101810008007F5D41FB1A86D20F08050A86520780E
:10182000800628D5606A0028D5F8980012D040F0CC
:101830000100C5F89800FFF79FF8074605E000BFD4
:10184000FFF79AF8C01B022820D8D5F89800800727
:10185000F6D510E020F00100C5F89800FFF78CF8ED
:10186000074604E0FFF788F8C01B02280ED8D5F819
:1018700098008007F6D4A06AF0B3022816D00C2E88
:101880007DD0286820F08070286000E0A7E0FFF796
:1018900073F80446A6E0000000100240D0380008AB
:1018A000240000201C00002000700040E868E26A6C
:1018B00000F00301914228D1216B00F07002090170
:1018C0001039914221D1626B00F4FE41B1EB022F3D
:1018D0001BD194F8382000F07841B1EBC26F14D1DD
:1018E000A18F00F4C00249084905A1F500119142F9
:1018F0000BD194F8401000E06AE04908490600F076
:10190000C060A1F1007181424BD00C2E73D02868C9
:10191000400170D4286820F080702860FFF72CF810
:10192000064604E0FFF728F8801B022857D82868ED
:101930008001F7D4F4E90B016FF00F0202EB011103
:101940000843218A5204490802EB4151A26841EA46
:1019500002210843217D4FF07E42490802EB41619C
:101960000843217B40EAC160E968244A11400843EA
:10197000E860286840F080702860E86800E03AE09D
:1019800040F08070E860FEF7F7FF044605E000BF16
:10199000FEF7F2FF001B022821D828688001F7D546
:1019A00027E02868800124D4286840F080702860EF
:1019B000E86840F08070E860FEF7DEFF044604E06F
:1019C000FEF7DAFF001B022809D828688001F7D546
:1019D0000FE000BFFEF7D0FF001B022802D9032052
:1019E000BDE8F88328688001F4D4E8680449084019
:1019F000E8600020F4E70120F2E700008C809D0100
:101A0000FCFFEEFE10B5401EB0F1807F01D3012037
:101A100010BD4FF0E02460610F21601701F009FD57
:101A20000020A06107202061002010BD30B590F893
:101A30003C20012A37D0012280F83C20CA688C68FB
:101A400022F4407222434C6822F4806222430C68E4
:101A500022F4006222430C6922F4805222434C6932
:101A600022F4005222438C6A22F4804222430C8BDF
:101A700022F4702242EA04420C4D04680023AC4276
:101A80000CD18D8C22F4700242EA0552CD6922F00D
:101A900080722A43096A22F000720A43626480F865
:101AA0003C30002030BD022030BD0000002C014041
:101AB000F0B590F83C20012A29D0012480F83C4060
:101AC000022280F83D2003685A689D68114EB34297
:101AD00003D122F470074A683A4322F070070A687B
:101AE0003A435A600268B24205D0B2F1804F02D048
:101AF000094B9A4204D1896825F08003194391600B
:101B000080F83D40002180F83C100846F0BD0220DE
:101B1000F0BD0000002C01400040014010B5040061
:101B200003D094F83D0010B107E0012010BD002063
:101B300084F83C00204600F023F8022084F83D00A1
:101B4000211D206800F09CFE012084F8480084F8E4
:101B50003E0084F83F0084F8400084F8410084F897
:101B6000420084F8430084F8440084F8450084F877
:101B7000460084F8470084F83D00002010BD0000B6
:101B800008B500680649884208D10648016E41F44C
:101B900000610166006E00F40060009008BD000066
:101BA000002C01400010024070B5044690F83C0043
:101BB0000025012817D0012684F83C60022084F813
:101BC0003D00226890682F4B184020F47F409060C1
:101BD0000868502838D00DDC20284FD005DC90B3A1
:101BE000102811D14AE0022070BD302846D040288C
:101BF0000AD13BE060282FD070280DD0B0F5805F6F
:101C000003D0B0F5005F12D0012584F83D600020BC
:101C100084F83C00284670BDCB68D1E901212068DA
:101C200000F071FE2068816841F0770109E0CB681F
:101C3000D1E90121206800F066FE2068816841F446
:101C400080418160E1E719E0CA684968206800F0D6
:101C5000ABFF5021206806E0CA684968206800F0A0
:101C6000B4FF6021206800F058FECEE7CA684968DA
:101C7000206800F099FF40212068F4E722680146BF
:101C80001046F0E788FFFEFF10B586B00446142129
:101C90006846FEF721FC0F492068884217D10E489C
:101CA000C16C41F00101C164C06C694600F00100E3
:101CB00005904FF480700090022001900020029067
:101CC0000390012004904FF09040FEF741FD06B0D4
:101CD00010BD0000002C01400010024070B5044609
:101CE00090F83C0000260D4601280BD0012084F816
:101CF0003C000C2A4AD007DC82B1042A20D0082AF2
:101D000006D131E0022070BD102A53D0142A63D0CE
:101D10000126002084F83C00304670BD206800F0A9
:101D200005FE2068816941F00801816120688169B0
:101D300021F004018161206881692A69114311E061
:101D4000206800F02FFE2068816941F40061816104
:101D50002068816921F480618161206881692A6934
:101D600041EA02218161D4E7206800F057FE206833
:101D7000C16941F00801C1612068C16921F0040115
:101D8000C1612068C1692A69114311E0206800F02F
:101D90007FFE2068C16941F40061C1612068C169AA
:101DA00021F48061C1612068C1692A6941EA022188
:101DB000C161AEE7206800F09BFE2068416D41F0F4
:101DC000080141652068416D21F0040141652068EA
:101DD000416D2A69114311E0206800F0B7FE2068C8
:101DE000416D41F4006141652068416D21F48061DD
:101DF00041652068416D2A6941EA0221416588E711
:101E000010B5040003D094F83D0010B107E00120A4
:101E100010BD002084F83C00204600F022F802208B
:101E200084F83D00211D206800F02AFD012084F87F
:101E3000480084F83E0084F83F0084F8400084F8AD
:101E4000410084F8420084F8430084F8440084F898
:101E5000450084F8460084F8470084F83D000020DF
:101E600010BD704710B50446022269B1042912D092
:101E7000082917D00C291CD0102921D094F8430030
:101E8000012824D0012010BD94F83E000128F9D18A
:101E900084F83E201DE094F83F000128F2D184F838
:101EA0003F2016E094F840000128EBD184F8402050
:101EB0000FE094F841000128E4D184F8412008E0C3
:101EC00094F842000128DDD184F8422001E084F832
:101ED00043200122206800F009FD12492068124ABF
:101EE000884204D0904202D0104B984203D1436CF8
:101EF00043F4004343642068884204D0B0F1804F2B
:101F000001D0904207D18168094A1140062906D0C4
:101F1000B1F5803F03D0016841F00101016000206C
:101F200010BD0000002C0140004001400044014071
:101F30000700010010B5040002D0A06F10B107E047
:101F4000012010BD002084F87400204600F026F81F
:101F50002420A0672068016821F00101016020466B
:101F600000F0D8FE0128ECD0606A10B1204600F0E5
:101F70003EFE2068416821F49041416020688168FC
:101F800021F02A0181602068016841F001010160AF
:101F90002046BDE8104000F08EBE0000F0B59BB0BA
:101FA0000446142115A8FEF797FA54216846FEF757
:101FB00093FA1C492068884232D1022400266846E0
:101FC00009960094FFF710F808B1FEF783FB164856
:101FD000816D41F400318165816D01F400311A9108
:101FE000C16C41F00101C164C06C15A900F0010091
:101FF0001A90042081E8510003250720CDE91850EC
:102000004FF090473846FEF7A3FBCDE917654FF434
:1020100000401995CDE9150415A93846FEF798FB3F
:102020001BB0F0BD00440040001002402DE9F84311
:102030000446806F1F4616460D4620284FD1CDB16D
:10204000C6B194F87400012849D0012084F87400C6
:102050004FF00008C4F880802120A067FEF78CFCB8
:10206000A4F850608146A4F85260A068B0F5805F83
:1020700003D004E00120BDE8F883206928B12E4692
:102080005FF0000584F8748010E00026FAE78021F4
:10209000204600F02DFFB8B9C6B116F8010B216833
:1020A0000885B4F85200401EA4F85200B4F852005B
:1020B0004B464FF0000200970028E8D14FF0400156
:1020C000204600F015FF30B10320D4E735F8020BAD
:1020D000C0F30800E3E72020A0670020CBE7022040
:1020E000C9E7FEE701688A69D243920701D400225A
:1020F0008A6200688169C943C90703D0816941F0D8
:1021000001018161704700002DE9F0470446006835
:102110008A461746816900252E46C906A9464FF012
:10212000200849D51021C16137E000BFBAF1FF3F57
:1021300033D0FEF721FCC11B514502D8BAF1000F84
:102140002BD12068416894F8422001F480418369D2
:10215000DB431B041CD4B1F5804F19D0202A17D0C3
:10216000416841F480414160FEF706FC07460FE0FC
:10217000FEF702FCC01B19280AD9606C40F0200051
:10218000606484F8418084F8429084F8409001258E
:1021900020688069C0438006EAD420688069C04313
:1021A000800602D5002DC1D003E015B92168C1F821
:1021B0001C8046F00406012521688869C20505D502
:1021C0004FF4807246F00106CA610125410509D528
:1021D00022684FF4806146F00806D1610125800530
:1021E00002D40AE0800507D521684FF4007046F05C
:1021F0000206C861012500E08DB12046FFF772FF9D
:1022000054F8240B4168074A11404160206A30436A
:10221000206284F81D8084F81E9084F81C90284663
:10222000BDE8F08700E800FE2DE9F84304461646B5
:10223000DDE9089714489846DAB20090002320465A
:1022400000F056F83A464946204600F0BBF8B8B9C7
:10225000F5B2B8F1010F08D02168300A88623A4619
:102260004946204600F0AEF850B9206885624B46DA
:10227000002240212046009700F052F8002800D0AC
:102280000120BDE8F8830000002000802DE9F8431C
:102290000446164615489846DDE90897DAB2C302A7
:1022A0000090204600F024F83A464946204600F0C7
:1022B00089F8B8B9F5B2B8F1010F08D02168300A31
:1022C00088623A464946204600F07CF850B92068BA
:1022D00085624B46002280212046009700F020F8BE
:1022E000002800D00120BDE8F88300000020008015
:1022F00010B5C1F3090141EA02410268029C194389
:102300002143506821F000414FF4806303EA5453A5
:10231000024C234398430843506010BDFF63FF0302
:102320002DE9F0411D4617460E460446DDF818809B
:1023300008E0681C06D0FEF71FFBA0EB0800A842CF
:102340000BD855B12068806936EA000012D0002011
:10235000B842EED00020BDE8F08154F8440F40F0C0
:10236000200044F80409202060700020A070207034
:102370000120F0E70120EBE770B516460D46044654
:102380000DE0324629462046FFF7BEFE08B1012087
:1023900070BDFEF7F1FA801BA84207D835B120685E
:1023A0008069C0438006ECD4002070BD54F8440F0F
:1023B00040F0200044F80409202060700020A07044
:1023C0002070E4E770B516460D4604460FE032462D
:1023D00029462046FFF798FE08B1012070BD681C11
:1023E00005D0FEF7C9FA801BA84207D835B120688E
:1023F0008069C0438007EAD4002070BD54F8440FC0
:1024000040F0200044F80409202060700020A070F3
:102410002070E2E7F0B587B014216846FEF75CF85B
:102420002548C16C41F00401C164C16C01F0040194
:102430000591C16C41F00101C164C16C01F0010161
:102440000591C16C41F00201C164C06C012200F031
:10245000020015034FF09046059029463046FEF7DE
:1024600085FA164F002208213846FEF77FFA01242C
:102470004FF40410CDE90040694638460294FEF757
:1024800067F9CDE900540025029569463046039569
:10249000FEF75EF908208DE831006946384603955D
:1024A000FEF756F9002211460620FEF71FFD062012
:1024B000FEF70EFD07B0F0BD00100240000400481A
:1024C000134810B5114901601249416000210122F1
:1024D000C0E90212016141618161C1610162FEF7DF
:1024E000A5FA08B1FEF7F6F800210948FEF74AFA06
:1024F00008B1FEF7EFF800210548FEF76EFA002854
:1025000003D0BDE81040FEF7E5B810BD0054004010
:10251000280000209129700010B59AB0002417946B
:10252000189415941694129413941C210BA81494C7
:10253000FDF7D2FF2C216846FDF7CEFF2B482A4934
:1025400001600721C0E9011440F2E731C0E903143A
:1025500044618461FFF7E2FA08B1FEF7BBF84FF47B
:102560008050159015A92148FFF71EFB08B1FEF712
:10257000B1F81E48FFF744FC08B1FEF7ABF812941F
:10258000139412A919481494FFF792FA08B1FEF7B0
:10259000A1F86020CDE90B040D940E940F941094D3
:1025A00000220BA911481194FFF798FB08B1FEF720
:1025B00091F800944FF40050CDE904400194029446
:1025C000039400030694CDE907400994694607483F
:1025D0000A94FFF72BFA08B1FEF77CF80348FFF7DF
:1025E00053FB1AB010BD0000002C01407C000020FD
:1025F0000D4810B50B4901604FF4E13141600021F5
:1026000081600C22C160C0E904128161C161016274
:102610004162FFF78FFC002803D0BDE81040FEF7B1
:1026200059B810BD00440040C8000020FEE7FEE796
:10263000704700002DE9F041444C05468846E068AB
:102640000026810728680DD0E16801F0030181426E
:1026500016D1A8B1E0686968C0F30210401C884236
:102660000ED120E0012804D0022805D0032807D18C
:1026700008E02168890701E021684905002907DB96
:1026800001265FE02168890302D421684903F5E748
:10269000E1686A686FF00F0321F0730103EB021227
:1026A00011430143E160206820F080602060FEF764
:1026B00063F9074605E000BFFEF75EF9C01B02287C
:1026C00037D820680001F7D4B8F1000F18D0B8F15E
:1026D000010F1DD0287D4FF07E41400801EB406086
:1026E000A96840EA01202169194A11400843206184
:1026F000206840F080602060FEF73EF907461AE04F
:10270000A868297B000240EAC1602169114AECE710
:10271000288A1149400801EB4050A96840EA01208D
:1027200021690E4AE1E700BFFEF726F9C01B022827
:1027300001D9032606E020680001F5D52069A969C2
:10274000084320613046BDE8F081000000100240DF
:10275000FF80FFF9FF80FF070000E0FFFF809FFF81
:10276000F8B51C4D06460024A86DC00002D5FEF742
:1027700023FC0DE0A86D40F08050A865A86D00F026
:1027800080500090FEF718FCA96D21F08051A965DA
:10279000B0F5007F04D0802E07D94FF003040AE083
:1027A000802E08D9A02E01D804E001D1022402E035
:1027B000702E00D101240848016821F0070121434F
:1027C0000160006800F00700A04201D00120F8BDC0
:1027D0000020F8BD00100240002002407047FEF7C4
:1027E00027BB000010B596B044216846FDF774FE83
:1027F000142111A8FDF770FE4FF40070FEF7A8FB3E
:1028000008B172B6FEE7FEF7DFFB184850F8901FDC
:1028100021F0180101601420009001200290002492
:1028200060210690CDE907410221CDE90A100C9004
:1028300028200D900720CDE90E0168461091FEF783
:1028400031FE08B172B6FEE70F2011900320CDE9EA
:1028500012041494042111A81594FEF70BFD08B17D
:1028600072B6FEE7FEF7B8FB16B010BD00100240CE
:102870000248016841F470010160704788ED00E092
:1028800070B50268164B4FF08046984201D0B042B6
:1028900003D122F070044A682243124C124D984230
:1028A00005D0B04203D0A04201D0A84203D122F407
:1028B0004076CA6832434E6922F080023243026099
:1028C0008A68C2620A688262984203D0A04201D03C
:1028D000A84201D1096901630121416170BD000075
:1028E000002C0140004001400044014010B501F0BF
:1028F0001F030121046A99408C430462016A9A40D3
:102900001143016210BD10B5846842EA032224F429
:102910007F440A432243826010BD826822F0700225
:102920000A4342F00701816070470000F0B5026A77
:1029300022F001020262056A43688269154C25F0A3
:10294000020522400C6822F0030214438A68134EE9
:102950002A43114D124FA84203D0B04201D0B842D1
:1029600006D122F0080CCA6842EA0C0222F00402E6
:10297000A84203D0B04201D0B84205D14D6923F43A
:1029800040731D438B692B434360846149684163F5
:102990000262F0BD8FFFFEFF002C014000400140AD
:1029A0000044014030B5026A22F010020262046A5B
:1029B00042688369154D2B400D6823F4407343EA48
:1029C000052524F020038C6843EA0413104CA04230
:1029D00007D1CC6823F0800343EA041323F04003BB
:1029E00005E00C4CA04202D00B4CA04207D14C6930
:1029F00022F4406242EA84028C6942EA8402426024
:102A0000856149688163036230BD0000FF8FFFFE6E
:102A1000002C0140004001400044014030B5026AF2
:102A200022F480720262046A4268C369144D2B402A
:102A30000D6823F003031D4324F400738C6843EAFC
:102A40000423104CA04207D1CC6823F4006343EA6E
:102A5000042323F4806305E00B4CA04202D00B4C0E
:102A6000A04207D14C6922F4405242EA04128C6918
:102A700042EA04124260C5614968C163036230BD25
:102A80008FFFFEFF002C0140004001400044014048
:102A900030B5026A22F480520262046A4268C36955
:102AA0000F4D24F400542B400D6823F4407343EA87
:102AB00005238D6844EA05340A4DA84205D00A4D25
:102AC000A84202D0094DA84204D14D6922F48042A7
:102AD00042EA85124260C36149680164046230BD04
:102AE000FF8FFFFE002C01400040014000440140E8
:102AF00030B5026A22F480320262046A4268436D91
:102B00000E4D2B400D681D4324F400330C8943EA1D
:102B100004430B4CA04205D00A4CA04202D00A4C00
:102B2000A04204D14C6922F4803242EA042242607D
:102B3000456549688165036230BD00008FFFFEFF77
:102B4000002C0140004001400044014030B5026AC1
:102B500022F480120262046A4268436D0E4D24F42E
:102B600000142B400D6843EA05230D8944EA0554FF
:102B70000A4DA84205D00A4DA84202D0094DA842EC
:102B800004D14D6922F4802242EA852242604365E5
:102B90004968C165046230BDFF8FFFFE002C014013
:102BA000004001400044014010B5036A046A24F06B
:102BB00001040462846924F0F00444EA021423F05E
:102BC0000A020A438461026210BD10B5036A23F051
:102BD000100303628369046A23F4704343EA0232F8
:102BE00024F0A00343EA01118261016210BD90F854
:102BF0002410C90706D001684A68836A22F40032AB
:102C00001A434A6090F82410890706D501684A687B
:102C1000C36A22F480321A434A6090F824104907AC
:102C200006D501684A68036B22F480221A434A6081
:102C300090F82410090706D501684A68436B22F40E
:102C400000421A434A6090F82410C90606D501686C
:102C50008A68836B22F480521A438A6090F82410A9
:102C6000890606D501688A68C36B22F400521A43AC
:102C70008A6090F82410490611D501684A68036CEF
:102C800022F480121A434A60016CB1F5801F06D10C
:102C900001684A68436C22F4C0021A434A6090F803
:102CA0002410090606D501684A68806C22F40022C7
:102CB00002434A607047F8B500260446C0F88060B9
:102CC000FDF75AFE0546206800686FF07E47000752
:102CD00008D52B4600224FF400112046009700F043
:102CE00007F960B92068006840070AD52B46002222
:102CF0004FF480012046009700F0FAF808B1032055
:102D0000F8BD2020A067E067266684F87460002084
:102D1000F8BD00002DE9F041044601688068226991
:102D2000E66910436269002532431043694B0A6823
:102D3000694E324002430A6020684168E26821F42B
:102D40004051114341602168A069994201D0226A33
:102D500010438A6822F4306202438A605F49276820
:102D60005F488F420DD1D0F8880010F0030006D0E4
:102D7000012838D0022834D0032821D135E00121A0
:102D80001FE058498F420BD1D0F8880010F00C009A
:102D900025D0042827D0082823D00C2810D124E0DF
:102DA0009F420DD1D0F8880010F4406017D0B0F5E4
:102DB000806F18D0B0F5006F13D0B0F5406F14D00D
:102DC0001021494A00264FF400409F422FD171B193
:102DD00002290FD004290FD0082973D10FE0002158
:102DE000EFE70221EDE70421EBE70821E9E7FEF731
:102DF000E3FA03E0104602E0FEF702FBF0B362687C
:102E000002EB420181425DD8B0EB023F5AD8010E7D
:102E100003025008181871410023FDF72FFA334AB6
:102E2000A0F5407191424DD82168C8604BE0E3693C
:102E30004FF6EF77834228D1092943D2DFE801F02A
:102E400005080B420D4242421000FEF7B5FA06E0BB
:102E5000FEF7C4FA03E0104602E0FEF7D1FA68B1CB
:102E60004100606801EB5001B1FBF0F0A0F11001EE
:102E7000B94227D84FF6F071014000E023E0C0F3DB
:102E8000420001432068C1601DE009291AD2DFE831
:102E900001F005080B190D1919191000FEF78CFA2D
:102EA00006E0FEF79BFA03E0104602E0FEF7A8FA00
:102EB00048B1616800EB5100B0FBF1F0A0F11001E6
:102EC000B94205D9012566662846A666BDE8F081A7
:102ED00080B2A9E700800040F369FFEF00380140AD
:102EE00000100240004400400024F400FFFC0F00EA
:102EF0002DE9F0479A4617460E4604464FF0000962
:102F00004FF02008089D4AE0681C48D0FDF734FDCA
:102F1000A0EB0A00A8422AD84DB3206801684907EF
:102F20003DD5C069C043000539D421684FF4006025
:102F30000862206850E8001F21F4D07140E80012B8
:102F4000002AF6D12068083050E8001F21F0010166
:102F500040E80012002AF5D1C4F87880C4F87C80DB
:102F6000C4F8808084F874900320BDE8F08721685D
:102F700051E8000F20F4D07041E80002002AF6D199
:102F80002068083050E8001F21F0010140E80012DD
:102F9000002AF5D1C4F87880C4F87C80E2E7206884
:102FA000C06936EA000004D00020B842ACD000204E
:102FB000DBE70120F9E7FEE717B581B000201446F2
:102FC0008DF800006A46E52101A800F000FA9DF89E
:102FD0000010217004B010BD17B583B01446DDE9B0
:102FE000030101AA00F040F86A46312103A800F06D
:102FF000EEF900280BD19DF800109DF8042001F097
:103000000101914201D1012100E00021217006B0AF
:1030100010BD13B501228621684600F0E8F91CBDF9
:1030200017B581B014466A46962101A800F0D2F97E
:10303000BDF80010218004B010BD17B581B0144652
:103040006A464B2101A800F0C2F99DF80010C0B2F9
:10305000142902D00A2902D003E0012100E0022154
:10306000218004B040B210BD17B581B014466A4645
:10307000302101A800F0ABF99DF8001001F010011B
:103080008DF80010090903D00021217004B010BD93
:103090000121FAE717B581B014466A465E2101A8FE
:1030A00000F098F9BDF80010B1F5D77F2DD00EDCF7
:1030B000602928D006DC1D2921D01E2921D05129C4
:1030C0001BD11EE0AD2920D0D62916D11BE040F23D
:1030D000E133A1F2E13299421BD009DCB1F5E67F80
:1030E00015D0A1F50071D93913D0082905D10EE00A
:1030F000AE2A10D0B2F5D87F0DD000210DE00F21FF
:103100000BE0142109E0212107E0322105E06421D0
:1031100003E0C82101E04FF4FA71218004B010BD32
:1031200073B582B00025194E8DF800502D2430194A
:10313000214610F82D2C02A800F059F9641CE4B2C5
:10314000872CF4D9DDE9020100F033F904E0DDE970
:1031500002016A46FFF740FF9DF800000028F6D004
:10316000DDE902018DF80050FFF753FFDDE90201B0
:1031700000F026F90922082102A800F038F90022FF
:103180000B2102A800F033F904B070BD1839000813
:1031900017B581B01446DDE901016A46FFF77AFFF1
:1031A000012C02D0022C3DD11CE014224B2101A89D
:1031B00000F01DF90722602101A800F018F905228E
:1031C000632101A800F013F93822692101A800F059
:1031D0000EF940F20572782101A800F01FF940F2C3
:1031E00006621BE00A224B2101A800F000F90F2221
:1031F000602101A800F0FBF80D22632101A800F076
:10320000F6F8B822692101A800F0F1F840F60D7235
:10321000782101A800F002F940F60E627A2101A897
:1032200000F0FCF8BDF80020DDE9010100F028F80D
:1032300004B010BD37B582B015466A46DE2102A83B
:1032400000F0C8F80446BDF80000C0F30900ADF86E
:103250000000684300F021FA9FED071B53EC112B8F
:1032600000F032FA00F0ECF902466C2102A800F0FE
:10327000C4F805B0204630BD333333333333F13F28
:1032800037B582B01546DDE902016A46FFF7D5FE83
:103290000446BDF8000068B14FF4FA7101280CD063
:1032A000642D71D04DDC142D5CD0212D61D0322DD8
:1032B0007CD160E0012005B030BD322D26D006DC87
:1032C0000F2D13D0142D18D0212D6FD117E0642DA0
:1032D00025D0C82D2CD08D4268D140F291525E216C
:1032E00002A800F09BF840F2C15236E01D225E2198
:1032F00002A800F093F827222FE0512200E0D62206
:103300005E2102A800F08AF86E2226E04FF4D77200
:103310005E2102A800F082F84FF4F4721DE040F242
:10332000E1225E2102A800F079F84FF4627214E005
:1033300040F2E1325E2102A800F070F840F29642BD
:103340000BE0C82D29D08D4230D140F28F425E2152
:1033500002A800F063F840F2A442612102A800F044
:103360005DF824E01E225E2102A800F057F8222218
:10337000F3E76022C4E7AD225E2102A800F04EF818
:10338000C622EAE700E011E04FF4E6725E2102A8EF
:1033900000F044F84FF4F572DFE740F2D9225E21E5
:1033A00002A800F03BF84FF43E72D6E70124204615
:1033B00081E713B540228721684600F018F81CBD4C
:1033C00013B500228721684600F011F81CBD0123C7
:1033D00000F03FB838B5144602236A4600F039F8C9
:1033E000002803D1BDF8001049BA218038BD07B5C7
:1033F000012302AA00F03DF80EBD08B5130E8DF8AA
:103400000030130C8DF80130130A8DF802308DF85E
:10341000032004236A4600F02CF808BD08B5130AFF
:103420008DF800308DF8012002236A4600F021F863
:1034300008BD0907090E002804DB00F1E02080F830
:103440000014704700F00F0000F1E02080F8141D18
:1034500070473EB564248DE81C0004790A46006874
:1034600002232146FDF73EFB002801D04FF0FF303C
:103470003EBD3EB564248DE81C0004790A46006810
:1034800002232146FDF7E4FB002801D04FF0FF3076
:103490003EBD00008EB0FDF7D3FCFFF7A3F9FEF7A9
:1034A000B9FFFFF70DF8FFF737F8FFF7A1F8022093
:1034B000FDF712F90025504C8DF830500CAAD4E9D4
:1034C0000401FFF779FD0220FDF706F99DF83000B1
:1034D0000028F3D0D4E90401FFF722FED4E9040167
:1034E0000122FFF755FED4E904012122FFF7C8FEAF
:1034F000D4E904012122FFF79DFED4E90401FFF77E
:1035000058FF00213D48FEF7ADFC3C4E40F2E73746
:103510008DF83450D4E904010DAAFFF75DFD9DF844
:10352000340000284FD0D4E904010BAAFFF778FD3E
:10353000D4E90401FFF76DFD207828B1BDF82C0017
:1035400010B1B0F5FA6F06D9656030684563BDF813
:103550002C00D8B10FE0C82803D2656030684763FB
:1035600009E0B0F5FA7F01D8322003E0B0F57A7FA8
:103570000AD864206060BDF82C100A20B1FBF0F37B
:10358000207870B11EA00DE0FA20F3E7207808B192
:103590001BA300E01BA31CA2282101A8FCF7E6FE48
:1035A00006E018A000901FA2282101A8FCF7DEFE6B
:1035B00082B24FF0FF3301A91F48FEF737FD082103
:1035C0001E48FDF7CBF960680028A1D0FDF7D4F9BB
:1035D000A168401A616888429AD3607848B1002097
:1035E000607000B1384631684863FDF7C5F9A060E6
:1035F0008EE70120F4E70000000000207C0000209E
:103600006F6E00006F666600643D6F7574206F66B4
:103610002072616E676520206D6F746F723D257337
:103620000D0A0000643D257520636D20206D6F74C8
:103630006F723D25730D0A00C80000200004004889
:103640004FEA1153A3F58063D3F11E03A8BFD3F152
:10365000200C08DB4FF0004242EAC12252EA5052ED
:1036600032FA03F0704709420BD4102BC4BF00207C
:10367000704703F5787CBCF1FF3F05D04FF0FF3079
:1036800070474FF00000704770B500F0C7F800BFFA
:103690004992248000207047F0E710F0004248BFB4
:1036A0004042B0FA80F310FA03F10AD0C3F11D03CF
:1036B00003F580634FEA415002EB035202EBD12144
:1036C00070474FF000007047DFF848C170B51CEA42
:1036D000111E1EBF1CEA13159EEA0C0F95EA0C0F73
:1036E00000F06F8081EA030423EA4C134EEAD47E93
:1036F00021EA4C1141F4801143F48013AE44A1FB44
:10370000024CA0FB0365AEF17F7E361955EB0C052C
:10371000A1FB034C4CF10003A0FB021C16EB0C06B2
:10372000654153F10003094218BF46F0010613F446
:10373000007F0BD14FEA03314FEA0530340341EAF1
:10374000155140EA16506FF003020AE04FEAC32118
:103750004FEAC520F40241EA555140EA56506FF055
:10376000020202EB2E4201EB025585EACE710AD02D
:103770005FEA440C18BF24F0004450F1000041F10E
:10378000000120EAD47040F2FE7C624500D270BD98
:10379000A84214BF4FF080444FF04044002E08BFB1
:1037A0000024BEF1806FA8BFA1F1C041BDE8704008
:1037B00080F282804FF0000001F1C04101F0004131
:1037C00070479EEA0C0F0CEA131518BF95EA0C0F10
:1037D00006D04FF0000081EA030E0EF0004170BDEC
:1037E00000F01CF88900013E00F007B800F009B8AD
:1037F0004FEA430C5FEA5C5C08D081EA030100F009
:103800005BB84FEA410C5FEA5C5CF6D14FF0000018
:10381000014970470000FF070000F87F0EF1020E1B
:103820002EF0030E5EF8046B364205D4012A43EBFA
:10383000030515F5001F12D8012841EB010C1CF5FA
:10384000001F0CD80ED14FEAD17C15F5001F0CEBF0
:103850004C0C0CF1020C08BF4CEBD37C04E04FF095
:10386000080C01E04FEAD37C0CEB4C0526FA05F678
:1038700006F00706B6F1040C06D20EEB860CBDE886
:1038800070404CF0010C6047DFE80CF0090B0202BD
:103890004FF000414FF00000A1F5002170BD194626
:1038A0001046012851EB010418BFD4F5001484BF61
:1038B000002001F0004170BD0808A0F500114FEA9A
:1038C000310170474FF04070E1EE100A7047000080
:1038D00000000000000000000102030406070809C0
:1038E000A0860100400D0300801A060000350C0080
:1038F00040420F0080841E0000093D0000127A0043
:103900000024F40000366E010048E801006CDC027F
:103910000000000001020304000000010200020890
:10392000000810010100000000FF000F000000006F
:1039300000200B0000020A2100000500000000C862
:10394000000038FF010008000001CC0F01F10D015B
:1039500068008008B8000000000F89000000000027
:103960000000010F0D0E0E000002C7FF9B000000BB
:103970000100000094390008000000202800000029
:10398000C8010008BC390008280000208807000092
:10399000E401000801000000000000000000000039
:1039A000000000002800002052000000010000007C
:0C39B000100000000000000000093D00B5
:040000050800018D61
:00000001FF
