:020000040800F2
:10000000F836002029030008533000089F29000813
:1000100051300008C30A0008BF3C0008000000007F
:10002000000000000000000000000000490200087D
:10003000C50A000800000000A5020008C534000839
:100040004303000843030008430300084303000878
:100050004303000843030008C70A000843030008DD
:100060004303000843030008430300084303000858
:100070004303000843030008430300084303000848
:100080004303000843030008430300084303000838
:100090004303000843030008430300084303000828
:1000A0004303000843030008430300084303000818
:1000B00043030008000000000000000043030008A4
:1000C0004303000800000000000000004303000894
:1000D0000000000043030008430300080000000084
:1000E0004303000843030008000000000000000074
:1000F0000000000000000000000000000000000000
:1001000000000000000000000000000043030008A1
:1001100000000000000000007D35000843030008D7
:100120004303000843030008430300084303000897
:100130004303000800000000000000000000000071
:100140004303000843030008430300084303000877
:100150004303000843030008430300084303000867
:1001600043030008430300084303000800000000A5
:1001700043030008430300080000000000000000E3
:1001800043030008430300084303000800F002F89B
:1001900000F04AF80AA090E8000C82448344AAF1D7
:1001A0000107DA4501D100F03FF8AFF2090EBAE8D5
:1001B0000F0013F0010F18BFFB1A43F0010318479B
:1001C0001468000034680000103A24BF78C878C171
:1001D000FAD8520724BF30C830C144BF04680C604D
:1001E000704700000023002400250026103A28BF95
:1001F00078C1FBD8520728BF30C148BF0B60704799
:10020000642900F09581752900F09281782900F029
:10021000CB81732900F0C383002070471FB506F01F
:10022000B9FA1FBD10B510BD00F011FC1146FFF763
:10023000F5FF04F04DF800F02FFC03B4FFF7F2FFD8
:1002400003BC00F037FC00002C4B1968086800F074
:100250005AB880F30988BFF36F8F4FF0000080F326
:10026000118870470000000008480068006880F3AB
:1002700008884FF0000080F3148862B661B6BFF3BF
:100280004F8FBFF36F8F00DF00BF00BF08ED00E0AE
:10029000DFF80C00016841F470010160704700BF95
:1002A00088ED00E0EFF30980BFF36F8F134B1A68FE
:1002B0001EF0100F08BF20ED108A20E9F04F1060EB
:1002C00009B44FF0500080F31188BFF34F8FBFF394
:1002D0006F8F05F047FA4FF0000080F3118809BCDA
:1002E0001968086800F014B81EF0100F08BF00F07D
:1002F00014B880F30988BFF36F8F7047A8000020FF
:10030000EFF30580704730C8B0E8C04FFFF7A1BFDA
:1003100030C8B0E8C04FFFF7E7BFB0EC088AB0ECD8
:1003200008CAFFF7E6BF00000948804709480047B0
:10033000FEE7FEE7FEE7FEE7FEE7FEE7FEE7FEE795
:10034000FEE7FEE704480549054A064B70470000F2
:100350006D3500088D010008F8300020F8360020C7
:10036000F8320020F832002053EA020C00F06980D5
:100370002DE9F04B4FF00006002B1FBFB3FA83F5B9
:1003800003FA05F424FA05F65E4012BF1643B2FAEA
:1003900082F502FA05F4C5F120051EBF22FA05FC1C
:1003A00044EA0C04203556EA044C4FEA144418BFC2
:1003B000641C4FF000084FF00009904271EB030CF1
:1003C00039D3002919BFB1FA81F701FA07F6B0FA5B
:1003D00080F700FA07F6C7F120071EBF20FA07FCD6
:1003E00046EA0C062037B6FBF4FCA7EB0507103FE6
:1003F00007F01F0BCBF120060CFA0BFB2CFA06F6CC
:1004000044BFB3460026202FA4BF5E464FF0000B2A
:100410005BEA060C08BF4FF0010B19EB0B09ABFBB5
:10042000027C48EB0608C01B06FB02CC0BFB03CC8E
:1004300071EB0C01C1E70B46024641464846BDE858
:10044000F08B13B54FF000004FF00001AFF30080C8
:10045000BDE81C40704700000FB47CB50C0009AA31
:10046000009001D02044401E084B7B446946019017
:10047000089800F062FA05461CB10020694600F0B9
:100480006FFA28467CBC5DF814FB0000FD040000F8
:1004900070B5044685690068C10601D5302600E0C4
:1004A0002026C00707D070BDD4E90121304690470F
:1004B000206A401C20626D1EF6D570BD70B50446E2
:1004C00085690078C00707D170BDD4E901212020DB
:1004D0009047206A401C20626D1EF6D570BD70B535
:1004E0000C460546012A05D02878800600D5EA6921
:1004F000002302E0012305E05B1C934202D2E05C92
:100500000028F9D1A869E618C01AA861286A184419
:1005100028622846FFF7BCFF04E0D5E9012114F862
:10052000010B9047B442F8D32846FFF7C7FF70BDD0
:100530002DE9F0410646002410687529314616A5BC
:1005400010D0AFF30080002802DA404213A507E084
:1005500031688A0701D512A502E0490704D511A523
:10056000012401E0AFF3008000210A2206F12407F4
:1005700009E0B0FBF2FCB0FBF2F302FB1C003030F0
:1005800078541846491C0028F3D123462A463046A1
:10059000BDE8F04100F072B9000000002D0000003D
:1005A0002B0000002000000070B504460D462146D7
:1005B0001068AFF300802188090502D50F4A7A44FC
:1005C00002E00E4A7A440E32002104F1240305E0D1
:1005D00000F00F060009965D5E54491C0028F7D113
:1005E00020780023000704D5702D02D009B1022322
:1005F00011322046BDE8704000F040B96D63000044
:100600002DE9F05F894604464FF0000ADFF874B127
:10061000FB44C0F820A02046E1688847002874D039
:10062000252806D0D4E901219047206A401C206289
:10063000F1E700265F462046E16888472028054606
:1006400007DB312D05D2781910F8200C08B10643CC
:10065000F1E7B00701D526F00406C4F81CA0002776
:10066000C4F818A02A2D09D0284603F08EFD38B30F
:1006700004EB8708303DC8F8185019E059F8041BFE
:10068000204604EB87029161E1688847012F054607
:1006900018D1E069002820DA26F020061DE0D8F8FD
:1006A000180000EB800005EB40003038C8F8180057
:1006B0002046E1688847054603F067FD0028EED133
:1006C000012F0AD02E2D08D12046E16888477F1CD3
:1006D0000546022F46F02006C4DBA069002803DA95
:1006E000404246F00106A061F00701D026F0100656
:1006F0006C2D0BD0682D09D04C2D39D06A2D35D0FA
:10070000742D35D07A2D33D016E038E0E1682F46CD
:1007100020468847B842054609D16C2F26D04FF4B1
:100720008060E168064320468847054604E06C2F58
:100730001AD04FF4807006430DB3A5F1410019287B
:1007400002D8203546F400664A46294620462660EF
:100750004E46FFF755FD80B101280BD0F61D26F05F
:10076000070000F1080956E74020E4E78020D8E7B9
:100770000020D6E706F104094DE7284652E7206A33
:1007800000F002B84363000030BCBDE8C09F032AFC
:1007900040F2308010F0030C00F0158011F8013B9E
:1007A000BCF1020F624498BF11F801CB00F8013B85
:1007B00038BF11F8013BA2F1040298BF00F801CB49
:1007C00038BF00F8013B11F0030300F0EC80083A59
:1007D000C0F0088051F8043B083A51F804CBA0E877
:1007E0000810F5E7121D5CBF51F8043B40F8043BCC
:1007F000AFF30080D20724BF11F8013B11F801CB01
:1008000048BF11F8012B24BF00F8013B00F801CBD1
:1008100048BF00F8012B704702F0FF0343EA0322B0
:1008200042EA024200F0F3B84FF0000200B513466E
:1008300094469646203922BFA0E80C50A0E80C5000
:10084000B1F12001BFF4F7AF090728BFA0E80C50B1
:1008500048BF0CC05DF804EB890028BF40F8042BAA
:1008600008BF704748BF20F8022B11F0804F18BF17
:1008700000F8012B70477047704770472DE9F0472B
:100880000D4699469246044600F124080168880600
:1008900004D5E06921F01001216000E00120A842A8
:1008A00001DD471B00E00027A1697A1902EB09006E
:1008B000081AA0612078C00602D42046FFF7E8FDA0
:1008C000002608E0D4E901211AF806009047206AC2
:1008D000401C761C20624E45F4DB2078C0060AD509
:1008E0002046FFF7D5FD06E0D4E9012130209047EE
:1008F000206A401C2062381EA7F10107F4DC07E0E3
:10090000D4E9012118F805009047206A401C2062B4
:10091000281EA5F10105F3DC2046FFF7CFFD207866
:10092000000602D50220BDE8F0870120FBE70000A9
:1009300001694A1C02610878704700B58FB0CDE9A3
:1009400001310021059105497944CDE90310114693
:100950006846FFF755FE0FB000BD0000E5FFFFFF42
:100960000A6802F8010B0A607047D1E900239A4235
:1009700002D2531C0B601070704710B5436913B15D
:10098000AFF3008001E0FFF7AAFD012010BD12784F
:1009900000F124010A7000224A700122EDE711687B
:1009A0004FF0FF32E9E710B5203AC0F00B80B1E814
:1009B0001850203AA0E81850B1E81850A0E8185094
:1009C000BFF4F5AF5FEA027C24BFB1E81850A0E89D
:1009D000185044BF18C918C0BDE810405FEA827CB7
:1009E00024BF51F8043B40F8043B08BF7047D207CE
:1009F00028BF31F8023B48BF11F8012B28BF20F86F
:100A0000023B48BF00F8012B70474FF00002042959
:100A1000C0F0128010F0030C3FF408AFCCF1040CCE
:100A2000BCF1020F18BF00F8012BA8BF20F8022B61
:100A3000A1EB0C01FFF7FABE5FEAC17C24BF00F80E
:100A4000012B00F8012B48BF00F8012B70477546B9
:100A500000F02CF8AE4605006946534620F007002A
:100A6000854618B020B5FFF76DFCBDE820404FF07B
:100A700000064FF000074FF000084FF0000B21F088
:100A80000701AC46ACE8C009ACE8C009ACE8C00955
:100A9000ACE8C0098D46704710B50446AFF300803E
:100AA0002046BDE81040FFF7C8BB00000048704773
:100AB0009430002001491820ABBEFEE7260002005A
:100AC0007047FEE77047012000F0BEB872B6FEE73F
:100AD00070B5044600F0D8F90546601C02D0044801
:100AE0000078044400F0D0F9401BA042FAD370BD56
:100AF000980000202DE9F84F00230126DFF8FCC004
:100B00000F2776E006FA03F414EA010270D023F00E
:100B100003056544AA46D5F808909D074FEA157E5F
:100B200007FA0EF505EA090B0095B0F1904F05D0D4
:100B3000334DA84205D14FF001080AE04FF00008FC
:100B400007E0304DA84202D14FF0020801E04FF01B
:100B5000070808FA0EF8D84526D1DFF8AC80D8F897
:100B6000009029EA0209C8F8009008F10408D8F8B2
:100B7000009029EA0209C8F80090DFF88C8008F19B
:100B80000C08D8F8009029EA0209C8F80090A8F1EA
:100B90000408D8F800509543C8F80050009ADAF8D5
:100BA00008509543CAF80850D0F800804FEA43092E
:100BB000032202FA09F248EA0208C0F80080DD08C0
:100BC00000EB8505AA46D5F820804FEA43794FEA25
:100BD000D96907FA09F528EA0508CAF82080856866
:100BE000954385604568A5434560C4689443C460E7
:100BF0005B1C31FA03F285D100F008B80000014017
:100C000000040048000800480004014018BCBDE88A
:100C1000E08F000008B5012811D10020009008489D
:100C20006946006A05F045F80098002807D0054994
:100C30004FF080500860BFF34F8FBFF36F8F08BD38
:100C40000000002004ED00E0044910B50A680242EB
:100C500002D00860FFF7DEFF10BD00001404014061
:100C60002DE9F04FDFF8E091002301270326A9F1D9
:100C7000040B85B00F2509F1040AABF1040EDBE08B
:100C800007FA03FC12EA0C027ED00C7904F003048C
:100C9000012C01D0022C20D1846800945C0006FA5B
:100CA00004F80494009C24EA08040094D1F80C8011
:100CB000049C08FA04F8009C48EA0408C0F808807C
:100CC000446824EA0C0491F804C0CCF3001C0CFA2C
:100CD00003FC4CEA040CC0F804C00C79E443A407FC
:100CE0000DD0D0F80CC04FEA430806FA08F42CEAFD
:100CF000040C8C6804FA08F444EA0C04C4600C790F
:100D000004F00304022C19D1DC0800EB84040294E3
:100D1000246A4FEA437C4FEADC6CCDF810C005FA38
:100D20000CFC24EA0C04D1F81080DDF810C008FA9D
:100D30000CF848EA0408029CC4F8208004684FEAD2
:100D4000430806FA08FC24EA0C0491F804C00CF0ED
:100D5000030C0CFA08FC4CEA040CC0F800C04C6808
:100D600014F4403F67D0394CD4F860C04CF0010C0B
:100D7000C4F860C0246E23F0030C04F00104009456
:100D8000334C6444029400E055E0A4684FEA837C4D
:100D90004FEA1C7805FA08FC24EA0C04B0F1904FE5
:100DA00006D0DFF8B0C0604505D14FF0010C0BE074
:100DB0004FF0000C08E0DFF8A0C0604502D14FF012
:100DC000020C01E04FF0070C0CFA08FC4CEA040C92
:100DD000029CC4F808C0D9F80040CC46D1F8048081
:100DE00094435FEAC82800D51443CCF80040DAF8F1
:100DF0000040D446D1F8048094435FEA882800D5A7
:100E00001443CCF80040DBF80040DC46D1F8048005
:100E100094435FEA883800D51443CCF80040DEF8EC
:100E20000040F446D1F8048094435FEAC83800D506
:100E30001443CCF800405B1C0C682246DC407FF475
:100E40001FAF05B000F00AB80804014000100240CE
:100E500000000140000400480008004830BCBDE824
:100E6000C08F0069084000D001207047426921EA24
:100E700002030A4043EA0241816170470AB181617D
:100E80007047816270470000014880687047000029
:100E90009800002090F84120202A24D190F840208A
:100EA000012A20D0012280F84020242280F841200D
:100EB0000268136823F0010313600268136823F4C7
:100EC00080531360026813680B43136001680A685B
:100ED00042F001020A60202180F84110002180F8D0
:100EE0004010084670470220704790F84120202AA1
:100EF00022D190F84020012A1ED0012280F8402003
:100F0000242280F841200268136823F00103136053
:100F10000268136823F4706343EA012111600168D9
:100F20000A6842F001020A60202180F84110002185
:100F300080F84010084670470220704710B5040042
:100F400013D0242084F841002068016821F00101B9
:100F50000160204600F0CEF90020606484F8410072
:100F600044F8300FA074207410BD012010BD0000A3
:100F700070B5040004D094F84100002510B106E0DB
:100F8000012070BD84F84050204600F0CFF92420A5
:100F900084F841002068016821F001010160606867
:100FA000216820F0706008612068816821F40041A8
:100FB0008160E0680128A06807D040F404402168FF
:100FC0008860E068022803D006E040F40040F6E7BD
:100FD00021684FF40060486020684168114A11435D
:100FE00041602068C16821F40041C160D4E9040176
:100FF0000843A16940EA01202168C860D4E90701DB
:101000000843216808602068016841F0010101601F
:101010006564202084F84100256384F84250002054
:1010200070BD0000008000022DE9FF4F83B0044630
:10103000DDE9108790F84100DDF848909A46934624
:10104000202874D15FEA080014D09FB194F84000C2
:1010500001286CD0012084F84000FFF715FF0646F8
:10106000012200901923D103204601F0B7FD00288A
:1010700071D103E04FF4007060646CE0222084F8CA
:101080004100402084F8420000256564C4F82480B3
:1010900067856563CDE9009653465A462046049914
:1010A00001F020FD10B184F8405054E0618D3548C6
:1010B000FF274FF080784FF0007AFF2904D9278569
:1010C0003A464346009005E0618D2185009094F8F2
:1010D000282053462046049901F068FD4B46002223
:1010E00004212046009601F079FDA0BB2068406AEB
:1010F000616A0870606A401C6062208D401E81B287
:101100002185608D401E6085608DD8B1D1B94B4678
:10111000002280212046009601F060FDD8B9608D44
:10112000FF2805D927853A464346009506E026E084
:10113000608D2085009594F8282053462046049918
:1011400001F034FD608D0028C8D132464946204662
:1011500001F070FD18B1012007B000F017B8216848
:101160002020C86121684A68074B1A404A6084F809
:10117000410084F8425084F840500020ECE70220FF
:10118000EAE700000024008000E800FE30BCBDE873
:10119000C08F00002DE9FF4F83B00446DDE91087C2
:1011A00090F84100DDF848909A469346202871D186
:1011B0005FEA080014D09FB194F84000012869D07C
:1011C000012084F84000FFF75FFE064601220090F0
:1011D0001923D103204601F001FD00286ED103E060
:1011E0004FF40070606469E0212084F841004020E1
:1011F00084F8420000256564C4F82480678565632F
:10120000CDE9009653465A462046049901F09CFCCD
:1012100010B184F8405051E0608DFF274FF0807886
:101220004FF0007AFF2804D927853A4643460095B7
:1012300005E0608D2085009594F8282053462046CF
:10124000049901F0B3FC32464946204601F018FDEE
:10125000A0BB606A216800788862606A401C606296
:10126000608D401E6085208D401E80B22085618D7E
:10127000D9B1D0B94B46002280212046009601F01A
:10128000ADFCD8B9608DFF2805D927853A4643467D
:10129000009506E026E0608D2085009594F82820D2
:1012A00053462046049901F081FC608D0028CAD184
:1012B00032464946204601F0BDFC18B1012007B076
:1012C00000F014B820682021C16120684268064BF4
:1012D0001A40426084F8411084F8425084F840502B
:1012E0000020ECE70220EAE700E800FE30BCBDE8A1
:1012F000C08F000010B500680A49884211D10A4821
:10130000816D21F40011816541154FF09044204614
:10131000FFF7F0FB2046BDE810404FF48061FFF777
:10132000E9BB10BD005400400010024030B59BB036
:101330000446142115A8FFF777FA54216846FFF7F1
:1013400073FA18492068884229D14020002500906E
:101350000B95684600F034F908B1FFF7B7FB124C63
:10136000E06C40F00100E064E06C15A900F00100C1
:101370001A904FF4C06015901220CDE91605032095
:101380001890042019904FF09040FFF769FCA06D71
:1013900040F40010A065A06D00F400101A901BB07E
:1013A00030BD000000540040001002400248816837
:1013B00002781144816070479800002010B5002425
:1013C000032000F09FF80F2000F008F808B1012476
:1013D00001E000F04FF8204610BD000030B5054692
:1013E0001F4887B0816D41F010018165806D06A9AD
:1013F00000F01000009001A800F0CAFA0498B0B103
:1014000000F0E6FA40001749174AB0FBF1F117481F
:10141000491E0260416040F2E7320021C0E9032129
:101420008160816100F076FE040003D015E000F0D9
:10143000CFFAE8E70D4800F0CBFE04000DD13620CE
:1014400000F032F8102D07D200222946362000F095
:1014500039F80748056000E0012407B0204630BD98
:101460000010024040420F000010004074030020B2
:101470009C0000200B4882B0016E41F00101016622
:10148000016E01F001010091816D41F08051816593
:10149000806D002200F0805000900F21901E02B05D
:1014A00000F010B800100240002809DB00F01F0215
:1014B000012191404009800000F1E020C0F80011B6
:1014C00070470000F0B40E4B1B680C46C3F30223B8
:1014D000C3F10705042D00D90425191D072901D2E0
:1014E000002300E0DB1E012606FA05F1491E21401B
:1014F00099409E40761E16403143F0BC02F035BE46
:101500000CED00E0064900F0070208684FF6FF0303
:10151000184040EA0220034A104308607047000068
:101520000CED00E00000FA051649B0F5007F0868F0
:10153000C0F3412009D0022805D0086820F4C0601B
:1015400040F480600860002070470128FBD00868E4
:1015500020F4C06040F4007008600B48322200683C
:1015600050430A4AB0FBF2F0401C00E0401E4A69BA
:10157000520501D50028F9D148694005E3D503207B
:101580007047000000700040A400002040420F009F
:101590000248006800F4C06070470000007000401E
:1015A0000248016841F4807101607047007000409A
:1015B0000248016841F004010160704700100240D8
:1015C0002DE9F84F0446002700889C4D3E46000553
:1015D00015D5E06B60B1B0F5000F04D0B0F5400F49
:1015E0002BD001270AE0E86840F48030E86024E06E
:1015F0000021201D01F02EFD07001ED03E46206870
:10160000800338D5A86D4FF00008C00009D4A86D3C
:1016100040F08050A865A86D4FF0010800F08050A0
:101620000090DFF81CA2DAF8001041F48071CAF8CB
:101630000010FFF729FC814610E0D5F88800E16B27
:1016400020F440000843C5F88800D8E7FFF71CFCE9
:10165000A0EB0900022801D9032704E0DAF8000012
:10166000C005F3D5EFB33E46B8F1000F03D0A86D27
:1016700020F08050A8652078C00707D0D5F88800F2
:10168000216A20F003000843C5F88800207880070D
:1016900007D5D5F88800616A20F00C000843C5F82A
:1016A00088002078800607D5D5F88800A16A20F444
:1016B00040600843C5F888002088800507D5D5F824
:1016C0008800616B20F440200843C5F8880020881A
:1016D000400509D5D5F88800A16B20F440100843D7
:1016E00000E02EE0C5F888002078400607D5D5F840
:1016F0008800E16A20F440500843C5F8880020883B
:10170000C00507D5D5F88800216B20F44030084388
:10171000C5F8880020884FF0006780044FF080688B
:101720004ED5D5F88800216C20F040600843C5F8FC
:101730008800206CB8423BD1E86840F48010E86033
:101740003EE0D5F8900010F4407014D0216D814235
:1017500011D0D5F89000D5F8901020F4407041F4E5
:101760008031C5F89010D5F8901021F48031C5F87B
:101770009010C5F89000C00711D0FFF785FB074611
:1017800041F2883907E000BFFFF77EFBC11B4945E6
:1017900001D9032668E7D5F890008007F4D5D5F87D
:1017A0009000216D20F440700843C5F890005BE77D
:1017B000404505D10121201D01F04CFC00B1064639
:1017C0002068400317D5D5F88800616C20F0406090
:1017D0000843C5F88800606CB84204D1E86840F45A
:1017E0008010E86007E0404505D10121201D01F08F
:1017F00031FC00B106462088400411D5D5F8880098
:10180000A16C20F040500843C5F88800A06CB0F1EE
:10181000805F05D10221201D01F01CFC00B10646AD
:101820002088000406D555F8880FE16C20F0804030
:1018300008432860304600F005B800000010024060
:101840000070004018BCBDE8E08F00002DE9F047B3
:101850000F4605006BD0494E306800F00700B842D3
:1018600009D2306820F0070038433060306800F05B
:101870000700B8425BD12878414C80070AD5A86898
:10188000A16801F0F001884204D9A16821F0F001BB
:101890000143A1602878C0072CD06868032811D0C4
:1018A000022812D0216898B1490500293FDAA168C1
:1018B00021F003010143A160FFF7E6FA804641F2FF
:1018C000883910E021688901EFE721688903ECE796
:1018D0008907EAE7FFF7D8FAA0EB0801494502D9E2
:1018E0000320BDE8F087A068696800F00C00B0EB49
:1018F000810FEFD1287880070AD5A868A16801F088
:10190000F001884204D2A16821F0F0010143A160F6
:10191000306800F00700B8420BD9306820F00700AB
:1019200038433060306800F00700B84201D0012031
:10193000D7E72878400705D5A068E96820F4E0607B
:101940000843A0602878000706D5A068296920F41C
:10195000605040EAC100A06000F05EF8A168094A4A
:10196000C1F30311515C01F01F01C8400649086032
:1019700006480068BDE8F047FFF730BD0020024090
:10198000001002408C680008A40000209C00002089
:101990000F2202600C4A936803F0030343609368CC
:1019A00003F0F0038360936803F4E063C36092681C
:1019B0004FF4E06303EAD20202610448006800F0D9
:1019C000070008607047000000100240002002403D
:1019D0000548064900688968054AC1F30221515C3F
:1019E00001F01F01C8407047A40000200010024011
:1019F000CC6800080548064900688968054AC1F3B3
:101A0000C221515C01F01F01C8407047A4000020B2
:101A100000100240CC68000870B525490023184624
:101A20008A68CC6812F00C0204F00306214C4FEADD
:101A3000640509D00C2A05D0042A32D0082A00D126
:101A4000284670BD012E10D10B681B0704D4D1F8B5
:101A50009430C3F3032302E00B68C3F30313164E61
:101A600056F82330DAB10C2AEBD1C86800F0030035
:101A7000022818D0032818D01846CA68CB68C2F3C9
:101A80000212C3F306234343521CB3FBF2F2C868AD
:101A9000C0F34160401C4000B2FBF0F070BD18463E
:101AA00070BD204670BD2046E7E72846E5E7000008
:101AB000001002400024F4009C6800082DE9F8435F
:101AC00004006FD0FA4DA86800F00C06E86800F03A
:101AD00003072078C00664D576B10C2E01D1012F02
:101AE0000AD0A069002828687AD040F00100286058
:101AF000FFF7CAF980465DE02868800702D5A06933
:101B00000028DED0216A2868000703D5286800F085
:101B1000F00004E0D5F89400F02202EA10108142AF
:101B200016D9084601F02CFB00283BD1286840F06C
:101B3000080028602868216A20F0F0000843286027
:101B40006868E16920F47F4040EA0120686016E09F
:101B5000286840F0080028602868216A20F0F0001A
:101B6000084328606868E16920F47F4040EA01206A
:101B7000686026B9206A01F003FB0028D5D1FFF781
:101B80004BFFA968CB4AC1F30311515C01F01F015F
:101B9000C840C9490860C9480068FFF71FFC002811
:101BA0007ED12EE0CAE000BFFFF76EF9A0EB08007F
:101BB000022876D828688007F6D5286840F0080003
:101BC00028602868216A20F0F000084328606868CF
:101BD000E16920F47F4040EA0120686011E0FFE7FE
:101BE00020F001002860FFF74FF9804606E000BFB3
:101BF000FFF74AF9A0EB08000228DAD82868800726
:101C0000F6D42078C00740D0082E18D00C2E01D171
:101C1000032F14D06068B0F5803F17D0B0F5A02F27
:101C2000286817D020F480302860286820F48020AD
:101C300028606068E0B1FFF727F9804614E0286863
:101C4000800322D56068002878D01EE0286840F420
:101C50008030EDE740F480202860F7E7FFF714F9C3
:101C6000A0EB08006428A4D828688003F6D50CE00F
:101C7000FFF70AF9804605E0FFF706F9A0EB080038
:101C8000642896D828688003F6D4207880073BD54E
:101C9000042E11D00C2E01D1022F0DD0E06801E0EE
:101CA000AAE1FFE0002828681ED040F48070286078
:101CB000FFF7EAF807460CE0286840050CD5E06815
:101CC0000028C1D008E000BFFFF7DEF8C01B0228E3
:101CD00093D828684005F7D56868217C20F0F85033
:101CE00040EA016068600FE020F480702860FFF730
:101CF000CBF8074605E000BFFFF7C6F8C01B022877
:101D0000B1D828684005F7D42078000729D5606944
:101D10000028D5F8940012D040F00100C5F89400D6
:101D2000FFF7B2F8074604E0FFF7AEF8C01B022841
:101D300099D8D5F894008007F6D512E02BE120F071
:101D40000100C5F89400FFF79FF8074605E000BFC3
:101D5000FFF79AF8C01B022885D8D5F894008007B1
:101D6000F6D42078400766D5A86D0027C00008D4B7
:101D7000A86D40F08050A865A86D012700F0805044
:101D800000904F480168C90512D40168814641F4AA
:101D900080710160FFF778F8804605E0FFF774F87E
:101DA000A0EB080002287DD8D9F80000C005F5D5C1
:101DB000A068012816D00528D5F8900017D020F08B
:101DC0000100C5F89000D5F8900020F0040000BF95
:101DD000C5F89000A06841F28839C0B1FFF754F807
:101DE00080460FE0D5F8900040F00100F0E740F0A9
:101DF0000400C5F89000F5E7FFF746F8A0EB0801EE
:101E000049454FD8D5F890008007F5D50EE0FFF78B
:101E10003BF8804606E000BFFFF736F8A0EB08016C
:101E200049453FD8D5F890008007F5D41FB1A86D7B
:101E300020F08050A8652078800628D5606A0028A8
:101E4000D5F8980012D040F00100C5F89800FFF7CF
:101E50001BF8074605E000BFFFF716F8C01B022875
:101E600020D8D5F898008007F6D510E020F00100C2
:101E7000C5F89800FFF708F8074604E0FFF704F8F4
:101E8000C01B02280ED8D5F898008007F6D4A06AA7
:101E9000F0B3022816D00C2E7DD0286820F0807078
:101EA000286000E0A7E0FEF7EFFF0446A6E0000090
:101EB000001002408C680008A40000209C00002054
:101EC00000700040E868E26A00F00301914228D106
:101ED000216B00F0700209011039914221D1626B2F
:101EE00000F4FE41B1EB022F1BD194F8382000F032
:101EF0007841B1EBC26F14D1A18F00F4C002490840
:101F00004905A1F5001191420BD194F8401000E071
:101F10006AE04908490600F0C060A1F10071814201
:101F20004BD00C2E73D02868400170D4286820F064
:101F300080702860FEF7A8FF064604E0FEF7A4FFC5
:101F4000801B022857D828688001F7D4F4E90B01D8
:101F50006FF00F0202EB01110843218A5204490875
:101F600002EB4151A26841EA02210843217D4FF072
:101F70007E42490802EB41610843217B40EAC1608F
:101F8000E968244A11400843E860286840F08070FE
:101F90002860E86800E03AE040F08070E860FEF712
:101FA00073FF044605E000BFFEF76EFF001B02282A
:101FB00021D828688001F7D527E02868800124D43B
:101FC000286840F080702860E86840F08070E86021
:101FD000FEF75AFF044604E0FEF756FF001B0228F6
:101FE00009D828688001F7D50FE000BFFEF74CFF45
:101FF000001B022802D90320BDE8F883286880016D
:10200000F4D4E86804490840E8600020F4E70120BF
:10201000F2E700008C809D01FCFFEEFE70477047E8
:102020007047000030B590F83C20012A37D00122DB
:1020300080F83C20CA688C6822F4407222434C68C5
:1020400022F4806222430C6822F4006222430C696D
:1020500022F4805222434C6922F4005222438C6ABB
:1020600022F4804222430C8B22F4702242EA044282
:102070000C4D04680023AC420CD18D8C22F470020C
:1020800042EA0552CD6922F080722A43096A22F0A1
:1020900000720A43626480F83C30002030BD0220A8
:1020A00030BD0000002C0140F0B590F83C20012A22
:1020B00029D0012480F83C40022280F83D200368AA
:1020C0005A689D68114EB34203D122F470074A68E2
:1020D0003A4322F070070A683A435A600268B242F3
:1020E00005D0B2F1804F02D0094B9A4204D18968E1
:1020F00025F080031943916080F83D40002180F86D
:102100003C100846F0BD0220F0BD0000002C01404C
:102110000040014010B5040003D094F83D0010B118
:1021200007E0012010BD002084F83C00204600F0AC
:1021300023F8022084F83D00211D206801F024FAD4
:10214000012084F8480084F83E0084F83F0084F8B9
:10215000400084F8410084F8420084F8430084F889
:10216000440084F8450084F8460084F8470084F869
:102170003D00002010BD000008B5124A0168124859
:10218000914207D1016E41F400610166006E00F4D6
:10219000006014E0B1F1804F0AD00C4A91420FD197
:1021A000016E41F400310166006E00F4003006E07B
:1021B000816D41F001018165806D00F001000090AA
:1021C00008BD0000002C0140001002400044014006
:1021D00090F83D10012901D001207047022180F8BC
:1021E0003D100168CA6842F00102CA6000680B49EC
:1021F000884205D0B0F1804F02D00949884207D10A
:102200008168084A1140062906D0B1F5803F03D005
:10221000016841F00101016000207047002C01407D
:10222000004001400700010070B5044690F83C00F2
:102230000025012817D0012684F83C60022084F88C
:102240003D00226890682F4B184020F47F4090603A
:102250000868502838D00DDC20284FD005DC90B31A
:10226000102811D14AE0022070BD302846D0402805
:102270000AD13BE060282FD070280DD0B0F5805FE8
:1022800003D0B0F5005F12D0012584F83D60002036
:1022900084F83C00284670BDCB68D1E90121206854
:1022A00001F0B5F92068816841F0770109E0CB6859
:1022B000D1E90121206801F0AAF92068816841F480
:1022C00080418160E1E719E0CA684968206801F04F
:1022D000EFFA5021206806E0CA684968206801F0DA
:1022E000F8FA6021206801F09CF9CEE7CA684968D5
:1022F000206801F0DDFA40212068F4E722680146F9
:102300001046F0E788FFFEFF704770B5044600688E
:1023100001694FF00005C943890715D4C168C94355
:10232000890711D4E91E01610120207720688069A6
:102330008007204602D0FFF7E7FF04E000F0F2F844
:10234000204600F0B4F9257720680169C9434907A0
:1023500017D4C168C943490713D46FF00401016160
:10236000022020772068806910F4407F204602D048
:10237000FFF7CAFF04E000F0D5F8204600F097F917
:10238000257720680169C943090716D4C168C94384
:10239000090712D46FF0080101610420207720683A
:1023A000C0698007204602D0FFF7AEFF04E000F0CE
:1023B000B9F8204600F07BF9257720680169C94308
:1023C000C90617D4C168C943C90613D46FF01001F8
:1023D0000161082020772068C06910F4407F204602
:1023E00002D0FFF791FF04E000F09CF8204600F0D7
:1023F0005EF9257720680169C943C90708D1C1681A
:10240000C943C90704D1891E0161204600F0B8F90B
:1024100020680169C943090609D4C168C94309068E
:1024200005D46FF0800101612046FFF7F8FD2068B8
:102430000169C943C90509D4C168C943090605D45E
:102440006FF4807101612046FFF7E8FD20680169A3
:10245000C943490609D4C168C943490605D46FF088
:1024600040010161204600F095F920680169C943E7
:1024700089060BD4C168C943890607D46FF02001CF
:1024800001612046BDE87040FFF7CABD70BD000085
:1024900070B586B0044614216846FEF7C5F9246875
:1024A0001D4E00211D4A022301254FF09040B442E9
:1024B00009D1D46C44F00104D464D26C02F001025E
:1024C0000592DA011EE0B4F1804F12D0144DAC42F7
:1024D00020D1D46C44F00104D464D26C02F0010227
:1024E000059240220092CDE9013103910E21049121
:1024F0000DE0D46C44F00104D464D26C02F001020B
:10250000059220220092CDE90131CDE903156946FB
:10251000FEF7A6FB06B070BD002C01400010024083
:1025200000440140704770B5044690F83C00002616
:102530000D4601280BD0012084F83C000C2A4AD01B
:1025400007DC82B1042A20D0082A06D131E002201B
:1025500070BD102A53D0142A63D00126002084F8BD
:102560003C00304670BD206801F064F82068816945
:1025700041F0080181612068816921F004018161D5
:10258000206881692A69114311E0206801F08EF802
:102590002068816941F4006181612068816921F4CA
:1025A00080618161206881692A6941EA0221816133
:1025B000D4E7206801F0B6F82068C16941F008014D
:1025C000C1612068C16921F00401C1612068C1694D
:1025D0002A69114311E0206801F0DEF82068C16922
:1025E00041F40061C1612068C16921F48061C16169
:1025F0002068C1692A6941EA0221C161AEE7206809
:1026000001F0FAF82068416D41F008014165206849
:10261000416D21F0040141652068416D2A69114333
:1026200011E0206801F016F92068416D41F4006165
:1026300041652068416D21F4806141652068416DEC
:102640002A6941EA0221416588E710B5040003D0F8
:1026500094F83D0010B107E0012010BD002084F87F
:102660003C00204600F022F8022084F83D00211DA5
:10267000206800F089FF012084F8480084F83E00BB
:1026800084F83F0084F8400084F8410084F8420058
:1026900084F8430084F8440084F8450084F8460038
:1026A00084F8470084F83D00002010BD7047704753
:1026B00010B50446022269B1042912D0082917D0A6
:1026C0000C291CD0102921D094F84300012824D0D3
:1026D000012010BD94F83E000128F9D184F83E2075
:1026E0001DE094F83F000128F2D184F83F2016E065
:1026F00094F840000128EBD184F840200FE094F8D2
:1027000041000128E4D184F8412008E094F8420017
:102710000128DDD184F8422001E084F84320012221
:10272000206800F067FF12492068124A884204D0EE
:10273000904202D0104B984203D1436C43F40043C3
:1027400043642068884204D0B0F1804F01D09042A9
:1027500007D18168094A1140062906D0B1F5803FAA
:1027600003D0016841F001010160002010BD0000AC
:10277000002C0140004001400044014007000100DE
:1027800000680349884201D1FEF710BE704700007F
:1027900000100040704710B5040002D0A06F10B1C7
:1027A00007E0012010BD002084F87400204600F0EE
:1027B00025F82420A0672068016821F0010101604C
:1027C000204601F02BF90128ECD0606A10B12046B8
:1027D00001F091F82068416821F49041416020683F
:1027E000816821F02A0181602068016841F00101BF
:1027F00001602046BDE8104001F0E1B82DE9F0414C
:102800009CB00446142115A8FEF70EF85421684622
:10281000FEF70AF830492068304C032700250226CD
:102820004FF00708884221D10120009008956846A2
:10283000FEF7C6FE08B1FEF749F9206E40F480406D
:102840002066206E00F480401A90E06C40F0020098
:10285000E064E06C17AA00F002001A90C020CDE9F5
:10286000150682E8A00115A91D482FE01D498842E0
:102870002ED1684600960995FEF7A2FE08B1FEF734
:1028800025F9A06D40F40030A065A06D00F4003083
:102890001A90E06C40F00100E064E06C17AA00F0D0
:1028A00001001A900420CDE9150682E8A0014FF03E
:1028B000904415A92046FEF7D3F9CDE917574FF4F8
:1028C00000401997CDE9150615A92046FEF7C8F96D
:1028D0001CB0BDE8F081000000380140001002404B
:1028E00000040048004400402DE9F8430446806F8E
:1028F0001F4616460D4620284FD1CDB1C6B194F8DB
:102900007400012849D0012084F874004FF00008B9
:10291000C4F880802120A067FEF7B6FAA4F85060C2
:102920008146A4F85260A068B0F5805F03D004E04F
:102930000120BDE8F883206928B12E465FF000052C
:1029400084F8748010E00026FAE78021204601F028
:1029500053F9B8B9C6B116F8010B21680885B4F867
:102960005200401EA4F85200B4F852004B464FF0FB
:10297000000200970028E8D14FF04001204601F006
:102980003BF930B10320D4E735F8020BC0F308005F
:10299000E3E72020A0670020CBE70220C9E7FEE79D
:1029A00001688A69D243920701D400228A620068D2
:1029B0008169C943C90703D0816941F0010181617F
:1029C000704700002DE9F047044600688A46174624
:1029D000816900252E46C906A9464FF0200849D531
:1029E0001021C16137E000BFBAF1FF3F33D0FEF7DD
:1029F0004BFAC11B514502D8BAF1000F2BD1206808
:102A0000416894F8422001F480418369DB431B0450
:102A10001CD4B1F5804F19D0202A17D0416841F459
:102A200080414160FEF730FA07460FE0FEF72CFACE
:102A3000C01B19280AD9606C40F02000606484F83B
:102A4000418084F8429084F8409001252068806994
:102A5000C0438006EAD420688069C043800602D55E
:102A6000002DC1D003E015B92168C1F81C8046F0E3
:102A70000406012521688869C20505D54FF48072D6
:102A800046F00106CA610125410509D522684FF4C7
:102A9000806146F00806D1610125800502D40AE074
:102AA000800507D521684FF4007046F00206C86122
:102AB000012500E08DB12046FFF772FF54F8240B8A
:102AC0004168074A11404160206A3043206284F81F
:102AD0001D8084F81E9084F81C902846BDE8F0877D
:102AE00000E800FE2DE9F84304461646DDE90897A4
:102AF00014489846DAB200900023204600F056F8B9
:102B00003A464946204600F0BBF8B8B9F5B2B8F1EC
:102B1000010F08D02168300A88623A4649462046AB
:102B200000F0AEF850B9206885624B460022402183
:102B30002046009700F052F8002800D00120BDE8A0
:102B4000F8830000002000802DE9F8430446164673
:102B500015489846DDE90897DAB2C302009020468E
:102B600000F024F83A464946204600F089F8B8B902
:102B7000F5B2B8F1010F08D02168300A88623A46F0
:102B80004946204600F07CF850B9206885624B46E3
:102B9000002280212046009700F020F8002800D075
:102BA0000120BDE8F88300000020008010B5C1F3CB
:102BB000090141EA02410268029C1943214350681D
:102BC00021F000414FF4806303EA5453024C234345
:102BD00098430843506010BDFF63FF032DE9F041A7
:102BE0001D4617460E460446DDF8188008E0681CAE
:102BF00006D0FEF749F9A0EB0800A8420BD855B162
:102C00002068806936EA000012D00020B842EED079
:102C10000020BDE8F08154F8440F40F0200044F853
:102C20000409202060700020A07020700120F0E7CF
:102C30000120EBE770B516460D4604460DE032461E
:102C400029462046FFF7BEFE08B1012070BDFEF701
:102C50001BF9801BA84207D835B120688069C043A2
:102C60008006ECD4002070BD54F8440F40F02000E2
:102C700044F80409202060700020A0702070E4E770
:102C800070B516460D4604460FE0324629462046EA
:102C9000FFF798FE08B1012070BD681C05D0FEF753
:102CA000F3F8801BA84207D835B120688069C0437B
:102CB0008007EAD4002070BD54F8440F40F0200093
:102CC00044F80409202060700020A0702070E2E722
:102CD000F0B587B014216846FDF7A6FD2648C16C03
:102CE00041F00401C164C16C01F004010591C16CA3
:102CF00041F00101C164C16C01F001010591C16C99
:102D000041F00201C164C06C4FF4C05500F00200F4
:102D10004FF090460590002229463046FEF7AEF867
:102D2000164F002218213846FEF7A8F801244FF468
:102D30000410CDE90040694638460294FDF790FF43
:102D4000CDE9005400250295694630460395FDF70C
:102D500087FF18208DE83100694638460395FDF756
:102D60007FFF002205210620FEF7ACFB0620FEF7C0
:102D70009BFB07B0F0BD00000010024000040048BB
:102D8000124810B51049016011494160002101222B
:102D9000C0E90212016141618161C1610162FEF716
:102DA000E7F808B172B6FEE700210848FEF772F8AE
:102DB00008B172B6FEE700210448FEF796F8002835
:102DC00001D072B6FEE710BD00540040340100206F
:102DD0009129700010B592B01C210BA8FDF724FDBD
:102DE0002C216846FDF720FD1F481E490024016084
:102DF00043F67F61C0E901140911C0E90314802181
:102E0000C0E90541FFF786F908B172B6FEE716483A
:102E1000FFF71BFC08B172B6FEE76020CDE90B049A
:102E20000D940E940F94109400220BA90E48119447
:102E3000FFF779FB08B172B6FEE700944FF400503B
:102E4000CDE90440019402940394694606480A942B
:102E5000FFF7E8F808B172B6FEE70348FFF718FB82
:102E600012B010BD004401402002002010B59AB0FD
:102E700000241794189415941694129413941C21FA
:102E80000BA81494FDF7D0FC2C216846FDF7CCFC70
:102E90002B482A49016043F67F61C0E901140911FA
:102EA000C0E903148021C0E90541FFF733F908B1F7
:102EB00072B6FEE74FF48050159015A92048FFF731
:102EC000B3F908B172B6FEE71D48FFF7BEFB08B1C3
:102ED00072B6FEE71294139412A919481494FFF7DE
:102EE000E3F808B172B6FEE76020CDE90B040D945B
:102EF0000E940F94109400220BA911481194FFF71F
:102F000012FB08B172B6FEE700944FF40050CDE911
:102F1000044001940294039400030694CDE9074011
:102F20000994694606480A94FFF77CF808B172B61E
:102F3000FEE70348FFF7ACFA1AB010BD002C0140C1
:102F40008801002010B58EB00024079408940994DD
:102F50000A940B940C941C2168460D94FDF764FCB4
:102F60001E484FF08041016043F67F61C0E90114C3
:102F70000911C0E9031480218161FFF7CBF808B182
:102F800072B6FEE74FF48050079007A91348FFF789
:102F90004BF908B172B6FEE71048FFF756FB08B1CF
:102FA00072B6FEE70B940BA90C480D94FFF77CF862
:102FB00008B172B6FEE76020CDE900040294002259
:102FC000694606480494FFF7AEFA08B172B6FEE708
:102FD0000248FFF75DFA0EB010BD0000D4010020DA
:102FE0000C4810B50A4901604FF4165141600021A8
:102FF00081600C22C160C0E904128161C16101627B
:103000004162FFF7C8FB002801D072B6FEE710BD91
:10301000003801406C0200200C4810B50A490160DC
:103020004FF4E1314160002181600C22C160C0E9B0
:1030300004128161C16101624162FFF7ACFB0028AB
:1030400001D072B6FEE710BD00440040F00200203F
:10305000FEE7FEE72DE9F041444C05468846E0686E
:103060000026810728680DD0E16801F00301814244
:1030700016D1A8B1E0686968C0F30210401C88420C
:103080000ED120E0012804D0022805D0032807D162
:1030900008E02168890701E021684905002907DB6C
:1030A00001265FE02168890302D421684903F5E71E
:1030B000E1686A686FF00F0321F0730103EB0212FD
:1030C00011430143E160206820F080602060FDF73B
:1030D000DBFE074605E000BFFDF7D6FEC01B022859
:1030E00037D820680001F7D4B8F1000F18D0B8F134
:1030F000010F1DD0287D4FF07E41400801EB40605C
:10310000A96840EA01202169194A11400843206159
:10311000206840F080602060FDF7B6FE07461AE0A8
:10312000A868297B000240EAC1602169114AECE7E6
:10313000288A1149400801EB4050A96840EA012063
:1031400021690E4AE1E700BFFDF79EFEC01B022881
:1031500001D9032606E020680001F5D52069A96998
:10316000084320613046BDE8F081000000100240B5
:10317000FF80FFF9FF80FF070000E0FFFF809FFF57
:10318000F8B51C4D06460024A86DC00002D5FEF718
:10319000FFF90DE0A86D40F08050A865A86D00F023
:1031A00080500090FEF7F4F9A96D21F08051A965D7
:1031B000B0F5007F04D0802E07D94FF003040AE059
:1031C000802E08D9A02E01D804E001D1022402E00B
:1031D000702E00D101240848016821F00701214325
:1031E0000160006800F00700A04201D00120F8BD96
:1031F0000020F8BD00100240002002400F4E104C8D
:103200004FF0FF352946206A02F03EFE01280FD11B
:10321000142001F0D9F801213046FDF722FE38B91B
:1032200002F0A0F8207838B10020207002F0BAF83F
:10323000012001F0C9F8E5E70120F6E700040048A5
:10324000000000208CB0144D4FF0FF3405F18406CF
:1032500005F1780722460AA9E86A02F079FD0128FB
:1032600016D19DF82900BDF82A100CA256F82000AE
:10327000CDE900019DF82800202157F8203002A850
:10328000FDF7EAF882B2234602A90748FFF72CFBB4
:10329000012001F099F8DDE70000002025733A25B0
:1032A000733A25750A0000006C020020A8B0194D81
:1032B0004FF0FF34224607A9A86A02F049FD012811
:1032C00024D10DF12C0C9CE80F000DF10C0C8CE8B6
:1032D0000F009DF8280008B10FA200E00FA2BDF872
:1032E0001E00BDF820108DE80700BDF81C300CA2B0
:1032F00060210FA8FDF7B0F882B223460FA9144849
:10330000FFF7F2FA08211348FDF7B0FD012001F0A4
:103310005BF8CFE7000000206F6E00006F6666006C
:10332000463D253475204C3D25347520523D2534CD
:1033300075206D3D257320653D256C752F256C75B9
:103340002F256C7520723D256C750D0A000000005C
:10335000F002002000040048012001F035F8FBE7EE
:103360008EB00020454F0090019006460DF10C09EB
:10337000A7F101080290142269464446D8F82400B7
:1033800002F0E6FC01F0EEFF247802F00BF82CB31B
:10339000BDF80010002000F0FFFEBDF80210012073
:1033A00000F0FAFEBDF80410022000F0F5FE00BFA8
:1033B000BDF80000ADF80C00BDF80200ADF80E003D
:1033C000BDF80400ADF810005FF0000439F81400F7
:1033D00010B1B0F5FA6F04D9002511E001F02EFF0D
:1033E000E6E7C82801D204250AE0B0F5FA7F01D843
:1033F000032505E0B0F57A7F01D8022500E001251C
:10340000395DA9420DD08DF814408DF81550ADF8F6
:10341000160000231A4605A9D8F82C0002F03AFB42
:103420003D55641C032CD1DB761C032E22DB9DE86A
:10343000070005AB002683E8070001F093FF98F82A
:10344000000044468DF820000D4A002005A900BF69
:1034500052F8203001EB8005401C2B610328F7DB7C
:1034600060680C9001F09EFF00231A4605A9A06A2F
:1034700002F010FB012000F0A7FF7CE70100002014
:10348000280100200EB50E4CFDF7FEFC0290002036
:1034900001F0F2FCADF80000012001F0EDFCADF808
:1034A0000200022001F0E8FCADF8040000231A46F7
:1034B0006946606A02F0EEFA212000F085FFE3E73A
:1034C0000000002010B54FF0E020006902F02EFE51
:1034D000012803D0BDE8104002F0F0B910BD000093
:1034E00010B596B044216846FDF79EF9142111A845
:1034F000FDF79AF94FF40070FEF716F808B172B6AE
:10350000FEE7FEF74DF8184850F8901F21F018011B
:103510000160142000900120029000246021069098
:10352000CDE907410221CDE90A100C9028200D9029
:103530000720CDE90E0168461091FEF7BFFA08B1E9
:1035400072B6FEE70F2011900320CDE91204149407
:10355000042111A81594FEF779F908B172B6FEE7B7
:10356000FEF726F816B010BD0010024002480168B0
:1035700041F470010160704788ED00E00148FEF7FA
:10358000C4BE00007403002070B50268164B4FF0F3
:103590008046984201D0B04203D122F070044A68BC
:1035A0002243124C124D984205D0B04203D0A042A3
:1035B00001D0A84203D122F44076CA6832434E6952
:1035C00022F08002324302608A68C2620A68826224
:1035D000984203D0A04201D0A84201D109690163F9
:1035E0000121416170BD0000002C014000400140FC
:1035F0000044014010B501F01F030121046A994005
:103600008C430462016A9A401143016210BD10B5F7
:10361000846842EA032224F47F440A4322438260FE
:1036200010BD826822F070020A4342F007018160F7
:1036300070470000F0B5026A22F001020262056ADA
:1036400043688269154C25F0020522400C6822F07F
:10365000030214438A68134E2A43114D124FA842A5
:1036600003D0B04201D0B84206D122F0080CCA689B
:1036700042EA0C0222F00402A84203D0B04201D078
:10368000B84205D14D6923F440731D438B692B4328
:1036900043608461496841630262F0BD8FFFFEFFB1
:1036A000002C0140004001400044014030B5026A56
:1036B00022F010020262046A42688369154D2B40B1
:1036C0000D6823F4407343EA052524F020038C6839
:1036D00043EA0413104CA04207D1CC6823F08003C6
:1036E00043EA041323F0400305E00C4CA04202D04F
:1036F0000B4CA04207D14C6922F4406242EA84029A
:103700008C6942EA84024260856149688163036290
:1037100030BD0000FF8FFFFE002C01400040014043
:103720000044014030B5026A22F480720262046AE9
:103730004268C369144D2B400D6823F003031D43F9
:1037400024F400738C6843EA0423104CA04207D190
:10375000CC6823F4006343EA042323F4806305E088
:103760000B4CA04202D00B4CA04207D14C6922F472
:10377000405242EA04128C6942EA04124260C56176
:103780004968C163036230BD8FFFFEFF002C01401A
:10379000004001400044014030B5026A22F48052EA
:1037A0000262046A4268C3690F4D24F400542B403E
:1037B0000D6823F4407343EA05238D6844EA053419
:1037C0000A4DA84205D00A4DA84202D0094DA84290
:1037D00004D14D6922F4804242EA85124260C361FD
:1037E00049680164046230BDFF8FFFFE002C014078
:1037F000004001400044014030B5026A22F48032AA
:103800000262046A4268436D0E4D2B400D681D43F1
:1038100024F400330C8943EA04430B4CA04205D046
:103820000A4CA04202D00A4CA04204D14C6922F4B6
:10383000803242EA0422426045654968816503623C
:1038400030BD00008FFFFEFF002C01400040014012
:103850000044014030B5026A22F480120262046A18
:103860004268436D0E4D24F400142B400D6843EA6A
:1038700005230D8944EA05540A4DA84205D00A4D96
:10388000A84202D0094DA84204D14D6922F48022F9
:1038900042EA8522426043654968C165046230BDE1
:1038A000FF8FFFFE002C014000400140004401401A
:1038B00010B5036A046A24F001040462846924F0E8
:1038C000F00444EA021423F00A020A43846102620B
:1038D00010BD10B5036A23F0100303628369046A04
:1038E00023F4704343EA023224F0A00343EA0111B7
:1038F0008261016210BD90F82410C90706D00168EA
:103900004A68836A22F400321A434A6090F824100D
:10391000890706D501684A68C36A22F480321A43CF
:103920004A6090F82410490706D501684A68036B7D
:1039300022F480221A434A6090F82410090706D521
:1039400001684A68436B22F400421A434A6090F8C7
:103950002410C90606D501688A68836B22F4805258
:103960001A438A6090F82410890606D501688A688F
:10397000C36B22F400521A438A6090F8241049065F
:1039800011D501684A68036C22F480121A434A6018
:10399000016CB1F5801F06D101684A68436C22F4BE
:1039A000C0021A434A6090F82410090606D501683F
:1039B0004A68806C22F4002202434A607047F8B5DE
:1039C00000260446C0F88060FDF75EFA05462068D0
:1039D00000686FF07E47000708D52B4600224FF4A1
:1039E00000112046009700F007F960B920680068D0
:1039F00040070AD52B4600224FF48001204600974D
:103A000000F0FAF808B10320F8BD2020A067E067B5
:103A1000266684F874600020F8BD00002DE9F041AE
:103A20000446016880682269E669104362690025DE
:103A300032431043694B0A68694E324002430A60C0
:103A400020684168E26821F44051114341602168D7
:103A5000A069994201D0226A10438A6822F4306238
:103A600002438A605F4927685F488F420DD1D0F8D2
:103A7000880010F0030006D0012838D0022834D086
:103A8000032821D135E001211FE058498F420BD195
:103A9000D0F8880010F00C0025D0042827D0082882
:103AA00023D00C2810D124E09F420DD1D0F88800FB
:103AB00010F4406017D0B0F5806F18D0B0F5006FEB
:103AC00013D0B0F5406F14D01021494A00264FF4AE
:103AD00000409F422FD171B102290FD004290FD08D
:103AE000082973D10FE00021EFE70221EDE704215F
:103AF000EBE70821E9E7FDF76BFF03E0104602E082
:103B0000FDF78AFFF0B3626802EB420181425DD8A3
:103B1000B0EB023F5AD8010E030250081818714149
:103B20000023FCF721FC334AA0F5407191424DD8A7
:103B30002168C8604BE0E3694FF6EF77834228D1F4
:103B4000092943D2DFE801F005080B420D42424249
:103B50001000FDF73DFF06E0FDF74CFF03E01046C7
:103B600002E0FDF759FF68B14100606801EB5001C8
:103B7000B1FBF0F0A0F11001B94227D84FF6F07177
:103B8000014000E023E0C0F3420001432068C1602F
:103B90001DE009291AD2DFE801F005080B190D19FB
:103BA00019191000FDF714FF06E0FDF723FF03E0ED
:103BB000104602E0FDF730FF48B1616800EB5100AC
:103BC000B0FBF1F0A0F11001B94205D901256666FC
:103BD0002846A666BDE8F08180B2A9E700800040D3
:103BE000F369FFEF0038014000100240004400403C
:103BF0000024F400FFFC0F002DE9F0479A46174619
:103C00000E4604464FF000094FF02008089D4AE098
:103C1000681C48D0FDF738F9A0EB0A00A8422AD862
:103C20004DB32068016849073DD5C069C043000510
:103C300039D421684FF400600862206850E8001F02
:103C400021F4D07140E80012002AF6D12068083033
:103C500050E8001F21F0010140E80012002AF5D1D0
:103C6000C4F87880C4F87C80C4F8808084F87490AC
:103C70000320BDE8F087216851E8000F20F4D070E0
:103C800041E80002002AF6D12068083050E8001F01
:103C900021F0010140E80012002AF5D1C4F8788033
:103CA000C4F87C80E2E72068C06936EA000004D0EE
:103CB0000020B842ACD00020DBE70120F9E7FEE7A6
:103CC00017B581B0002014468DF800006A46E52142
:103CD00001A800F018FA9DF80010217004B010BD82
:103CE00017B583B01446DDE9030101AA00F040F8DE
:103CF0006A46312103A800F006FA00280BD19DF88E
:103D000000109DF8042001F00101914201D1012130
:103D100000E00021217006B010BD13B501228621FC
:103D2000684600F000FA1CBD17B581B014466A461B
:103D3000962101A800F0EAF9BDF80010218004B036
:103D400010BD17B581B014466A464B2101A800F09A
:103D5000DAF99DF80010C0B2142902D00A2902D065
:103D600003E0012100E00221218004B040B210BD37
:103D700017B581B014466A46302101A800F0C3F996
:103D80009DF8001001F010018DF80010090903D012
:103D90000021217004B010BD0121FAE717B581B0F0
:103DA00014466A465E2101A800F0B0F9BDF8001083
:103DB000B1F5D77F2DD00EDC602928D006DC1D2977
:103DC00021D01E2921D051291BD11EE0AD2920D0A0
:103DD000D62916D11BE040F2E133A1F2E13299423B
:103DE0001BD009DCB1F5E67F15D0A1F50071D939FA
:103DF00013D0082905D10EE0AE2A10D0B2F5D87F35
:103E00000DD000210DE00F210BE0142109E021214C
:103E100007E0322105E0642103E0C82101E04FF40E
:103E2000FA71218004B010BD73B582B00025214E17
:103E30008DF800502D243019214610F82D2C02A8A1
:103E400000F071F9641CE4B2872CF4D9DDE90201B9
:103E500000F04BF9FDF718F804464FF4FA760FE03E
:103E6000DDE902016A46FFF73BFF002806D1FDF7B6
:103E70000BF8001BB04203D94FF0FF3004B070BD07
:103E80009DF800000028EBD0DDE902018DF800501C
:103E9000FFF743FFDDE9020100F02EF909220821B6
:103EA00002A800F040F900220B2102A800F03BF923
:103EB000E4E70000D468000817B581B01446DDE9D6
:103EC00001016A46FFF76AFF012C02D0022C3DD1A6
:103ED0001CE014224B2101A800F025F907226021E3
:103EE00001A800F020F90522632101A800F01BF9C8
:103EF0003822692101A800F016F940F205727821F4
:103F000001A800F027F940F206621BE00A224B21CB
:103F100001A800F008F90F22602101A800F003F9C0
:103F20000D22632101A800F0FEF8B822692101A842
:103F300000F0F9F840F60D72782101A800F00AF9B6
:103F400040F60E627A2101A800F004F9BDF80020C5
:103F5000DDE9010100F030F804B010BD07B55208EA
:103F60000121684600F0DFF80EBD000037B582B0D1
:103F700015466A46DE2102A800F0C8F80446BDF8DE
:103F80000000C0F30900ADF80000684302F0EDFA4C
:103F90009FED071B53EC112B02F0FEFA02F0B8FA6A
:103FA00002466C2102A800F0C4F805B0204630BDDE
:103FB000333333333333F13F37B582B01546DDE960
:103FC00002016A46FFF7BDFE0446BDF8000068B175
:103FD0004FF4FA7101280CD0642D71D04DDC142DF2
:103FE0005CD0212D61D0322D7CD160E0012005B064
:103FF00030BD322D26D006DC0F2D13D0142D18D055
:10400000212D6FD117E0642D25D0C82D2CD08D42E5
:1040100068D140F291525E2102A800F09BF840F274
:10402000C15236E01D225E2102A800F093F827223B
:104030002FE0512200E0D6225E2102A800F08AF88B
:104040006E2226E04FF4D7725E2102A800F082F8BB
:104050004FF4F4721DE040F2E1225E2102A800F06C
:1040600079F84FF4627214E040F2E1325E2102A866
:1040700000F070F840F296420BE0C82D29D08D4236
:1040800030D140F28F425E2102A800F063F840F286
:10409000A442612102A800F05DF824E01E225E2106
:1040A00002A800F057F82222F3E76022C4E7AD220D
:1040B0005E2102A800F04EF8C622EAE700E011E017
:1040C0004FF4E6725E2102A800F044F84FF4F57256
:1040D000DFE740F2D9225E2102A800F03BF84FF45E
:1040E0003E72D6E70124204681E713B5402287219E
:1040F000684600F018F81CBD13B5002287216846F9
:1041000000F011F81CBD012300F0C2B838B5144608
:1041100002236A4600F0BCF8002803D1BDF8001065
:1041200049BA218038BD07B5012302AA00F0C0F8C2
:104130000EBD08B5130E8DF80030130C8DF801304C
:10414000130A8DF802308DF8032004236A4600F02C
:10415000AFF808BD08B5130A8DF800308DF80120BE
:1041600002236A4600F0A4F808BD0907090E0028DA
:1041700004DB00F1E02080F80014704700F00F002D
:1041800000F1E02080F8141D704730380A2801D271
:10419000012070470020704700EB4002324830B5E4
:1041A00000EBC203D3E90420146811B1B1F5FA6F32
:1041B00015D9002148B1042809D0082809D00C28B5
:1041C00009D0102809D0E16530BD616330BDA1631D
:1041D00030BDE16330BD216430BDA16530BD4FF419
:1041E0007A75C82914D248B1042809D0082809D002
:1041F0000C2809D0102809D0E56530BD656330BDB5
:10420000A56330BDE56330BD256430BDA56530BD17
:104210004FF4FA7399421BD843F214411FE010681F
:10422000436330BD042808D0082809D00C280AD0E0
:10423000102810680AD0C36530BD1068836330BD94
:104240001068C36330BD1068036430BD836530BD42
:10425000A94202D846F6290101E04DF25401A162BB
:104260000028DFD1DBE700003000002010B5064851
:10427000FCF764FE0220FCF72BFCFEF781FD0348EF
:104280004168491C416010BD34010020000000203D
:104290003EB564248DE81C0004790A4600680223B8
:1042A0002146FCF7C1FE002801D04FF0FF303EBD93
:1042B0003EB564248DE81C0004790A460068022398
:1042C0002146FCF767FF002801D04FF0FF303EBDCC
:1042D000FDF774F8FFF704F9FEF7FAFCFEF750FD5E
:1042E000FEF79AFEFEF72EFEFEF7C0FDFEF772FD0A
:1042F000FEF776FE00F05EFF00212A48FEF7D8F9AF
:10430000284800214C38FEF7D3F9264800214C30CC
:10431000FEF7CEF900F066F80121234A084600F0C6
:10432000BBF8224C00220C212062022000F088F809
:10433000606200222021012000F082F80421A062A6
:104340000022084600F07CF8174AE062D83A0021C3
:10435000174800F0EDF8144AA060B43A002115485F
:1043600000F0E6F8104AE060903A0021124800F0B0
:10437000DFF80D4A20616C3A0021104800F0D8F8AF
:10438000094A6061483A00210D4800F0D1F8064A18
:10439000A061243A00210B4800F0CAF8E06100F067
:1043A00033F8FEE7D40100207C68000800000020FC
:1043B000593300088534000861330008FD310008D6
:1043C000AD3200084532000810B5EFF3058111B198
:1043D0006FF0050403E0002408B101F0C7F820469F
:1043E00010BD0000EFF3058010B16FF005007047BD
:1043F0000448016811B14FF0FF307047012101609E
:1044000000207047F800002010B5EFF3058010B1D0
:104410006FF0050010BD08480168012902D04FF077
:10442000FF3010BD054A002182F8141D02210160F1
:1044300001F04CF9002010BDF80000200BE000E076
:10444000F8B514464FF00005EFF3058212BB08B330
:1044500001B3A4B1D4E9023263B1502A1AD322695C
:10446000C2B1676900FB01F6B74213D3009501F0B2
:1044700099FA07E072B9226962B9626952B90022F9
:1044800001F06FFA050005D00CB1216800E00021B1
:1044900001F00AF82846F8BDF8B5144603460E4662
:1044A0004FF00005EFF3058098BB93B39E423DD8D3
:1044B0004CB1A0680028E06803D0502836D3012012
:1044C00002E008B132E00020012B05D010B31846FD
:1044D000A26801F026FA20E040B1032000900022FB
:1044E00011460120A36801F05DFA04E003220021D7
:1044F000012001F036FA050018D086B100231A46D3
:10450000194601F0C7FA012809D0284600F0E0FF5B
:1045100000250BE0184601F0E7F9050006D00CB1C4
:10452000216800E00021284600F0BEFF2846F8BDC3
:104530002DE9FF414FEA01034FF00005EFF305813C
:10454000039549BB40B38027182100244AB316685D
:1045500006B1344696691EB13146761E382E02D217
:104560001679F60703D0002004B0BDE8F081566943
:1045700006B1B708D2F808C0BCF1000F0DD0D5685D
:104580005C2D18D312693AB136B18DE806103A465F
:10459000214601F09FFD03900DE0D6685EB91269D7
:1045A0004AB903AACDE90012BAB2214601F062FD70
:1045B000012800D003950398D6E700002DE9F041CB
:1045C000134C0F460546E6682068001D00F06EFE9D
:1045D000681C07D137B12168BDE8F0410D48091DBD
:1045E00000F0B4BE20683544B5424560216805D26C
:1045F000A06BBDE8F041091D00F090BE606B091D85
:1046000000F08CFEA06A854200D2A562BDE8F08170
:10461000A8000020B00800202DE9F041054600F078
:10462000A1FE2D4CA068401CA06020682B4F10B14B
:10463000606930B32BE02560A068012827D10026EF
:1046400006EB860007EB800000F05AFE761C382E41
:10465000F6D3234800F054FE2148143000F050FEF9
:104660001F48283000F04CFE1D483C3000F048FE4A
:104670001B48503000F044FE194860631430A063BA
:1046800005E02068E96AC06A884200D82560606A4F
:10469000401C60626864E86A2169884200D9206130
:1046A00000EB800007EB8000291D00F04FFE00F0BA
:1046B00079FE606900280CD02068E96AC06A8842E7
:1046C00007D208494FF080500860BFF34F8FBFF307
:1046D0006F8FBDE8F0810000A800002000040020DA
:1046E0006008002004ED00E038B500F03BFE104CFF
:1046F0002068C8B90F4800F003FE0E48143000F0DF
:10470000FFFD0C48E060143020610A4B0020F03BB4
:10471000009003F1500210210A2001F043F92060BB
:1047200010B105A100F0C0FEBDE8384000F03ABE6F
:10473000E4000020B4090020546D72510000000014
:1047400030B4026C0B46002A0BD0C1681144C16022
:104750008468A14201D30168C16030BC1846FCF7EF
:1047600016B830BC70472DE9F041856B17460446FA
:104770000026026C82B1C7B1E068FCF708F8E16876
:10478000206C091AE1602268914202D2A168081ADD
:10479000E060022F16D017E02068A8B9A06801F0E9
:1047A0003DFD06460020A0600EE06068FBF7EFFFCD
:1047B000216C606808446060A168884204D3206866
:1047C000606001E005B16D1E6D1CA5633046BDE85B
:1047D000F08110B5044690F8590058B101280CD06A
:1047E00002280FD0502080F31188BFF34F8FBFF302
:1047F0006F8FFEE7206B00F0E9FD2046BDE810401A
:1048000000F0E4BD10BD000010484FF40051420715
:1048100006D0C01D0D4920F00700411AC1F5005116
:104820000B4A00230144C2E900030839183A21F079
:10483000070111604B600B600B1AC0E90013936015
:104840004FF000405360506170470000941000200A
:1048500014010020144E154CA6F29C474FF08058CE
:10486000DFF84C9012E000BF00F07CFDF068C568F6
:10487000281D00F01BFDA068401EA0606068401E5F
:10488000606000F08FFD2846FFF7A3FF60680028F6
:10489000EAD138680128F9D9C9F80080BFF34F8FF1
:1048A000BFF36F8FF2E700009C080020A8000020F3
:1048B00004ED00E070B51D46049C51B1C4F8002021
:1048C000C4E90F010121204601F0A0F884F84C5002
:1048D00070BD2460F4E700002DE9F05F8846DDE953
:1048E0000B941546834691009A460A9EA522206B9A
:1048F000FBF792FF6FF00301206B01EB8501084489
:1049000020F00707780707D0502080F31188BFF305
:104910004F8FBFF36F8FFEE70025B8F1000F0FD068
:104920005FF00000221818F8001082F8341018F810
:10493000001011B1401C1028F4D384F8435001E05A
:1049400084F83450382E00D33726E662C4E9136564
:10495000201D00F0E0FC04F1180000F0DCFC2461F4
:10496000C6F138006462A061656584F8585052460B
:104970005946384600F06AFA2060B9F1000F01D0BC
:10498000C9F8004000F000B830BCBDE8C09F00008E
:1049900030B5114900E011460A688242FBD34B68EA
:1049A0005C18844203D14068184448600846436854
:1049B0001C18944209D1084C183C2468A24209D022
:1049C00052681A4442600A6812680260814200D04C
:1049D000086030BD0460F9E71401002070B50024C0
:1049E00041600B4D0061914206D8D11A8269914213
:1049F00006D2011D286907E09A4203D2994201D3E9
:104A0000012403E0011DE86800F088FC204670BD29
:104A1000E400002010B5044600F0A4FCA06B28B10F
:104A20005FF0000400F0BEFC204610BD0124F9E751
:104A300030B589B03C4D6EE00498002806DADDE917
:104A40000601059A90470498002864DB069C60697B
:104A500010B1201D00F02AFC03A800F0D7F8024690
:104A600004980A2857D2DFE800F00505052D334ADF
:104A700005052D3394F8280040F0010084F8280043
:104A80000599A069059B01442046FFF7A7FF68B37D
:104A9000216A2046884794F8280040073BD500202B
:104AA00000900598A169002342181946204601F09C
:104AB000FBFCD8B9502080F31188BFF34F8FBFF3B0
:104AC0006F8FFEE714F8280F20F00100207022E01D
:104AD00094F8280040F0010084F828000598A061AF
:104AE00028B1811813462046FFF778FF13E05020C5
:104AF00080F31188BFF34F8FBFF36F8FFEE794F8F9
:104B00002800810703D4204600F060FC03E020F079
:104B1000010084F82800002204A9286801F018F98F
:104B2000002889D109B030BDE40000202DE9FC4106
:104B30000F46054600F00EFE01A800F067F8044697
:104B4000019818B101F01EFCBDE8FC81254EAFB103
:104B500030690068D0B30027291B3A46306800F05E
:104B6000E3FC01F00FFC0028EED11F494FF080500C
:104B70000860BFF34F8FBFF36F8FE5E7A542EBD817
:104B800001F000FCF0682746C068C468201D00F0F2
:104B90008DFB94F82800410719D5A0692B464119CF
:104BA0003A462046FFF71AFFA8B100200346014607
:104BB00000902A46204601F077FC60B9502080F32F
:104BC0001188BFF34F8FBFF36F8FFEE707E020F030
:104BD000010084F82800216A20468847B4E70127AD
:104BE000BAE70000E400002004ED00E00648416B55
:104BF000096829B1416BC968C96849688162704711
:104C00004FF0FF31FAE70000A800002070B505461C
:104C100001F09AFA064E0446B068844203D200F0CE
:104C200009F8012000E0002028602046B46070BD33
:104C3000E4000020F8B5194D20E0C068C46806689B
:104C4000201D00F033FB216A2046884794F8280095
:104C5000400713D5A0693044B04206D92461606092
:104C6000211DE86800F05AFB08E0002003460146D9
:104C700000903246204601F017FC38B1E868016820
:104C80000029DAD12969C5E90310F8BD502080F365
:104C90001188BFF34F8FBFF36F8FFEE7E400002052
:104CA00008484068401C4FF0500080F3118804D041
:104CB000BFF34F8FBFF36F8FFEE7BFF34F8FBFF38D
:104CC0006F8FFEE71C010020074CE068016841B1CE
:104CD000C0680021D0F80000FFF728FFFFF7A8FE0A
:104CE000F3E701210020F7E7E40000202DE9F0417F
:104CF000044600F037FB94F9455004F1240609E01E
:104D0000606A48B1304601F005FB08B100F05CFC78
:104D10006D1E6DB2002DF3DC4FF0FF3684F8456058
:104D200000F040FB00F01EFB94F9445004F1100722
:104D300009E0206948B1384601F0ECFA08B100F00A
:104D400043FC6D1E6DB2002DF3DC84F84460BDE8B9
:104D5000F04100F027BB00002DE9F0410546002797
:104D600000F0F8FC324E306808B9FFF74DFD70696D
:104D700005424ED1C5B3083568070ED005F00700CF
:104D8000C0F108000544680707D0502080F311885F
:104D9000BFF34F8FBFF36F8FFEE72DB3706885426F
:104DA00037D82348183001460C6801E020460C46ED
:104DB0006168A94202D221680029F7D131688C428A
:104DC00027D007682168016060680837411B1029F7
:104DD0000FD96019420708D0502080F31188BFF323
:104DE0004F8FBFF36F8FFEE713E041606560FFF701
:104DF000CFFD61687068401A7060B268904200D25E
:104E0000B060706901430020C4E90001F068401CF3
:104E1000F06001F0B7FA780707D0502080F31188CE
:104E2000BFF34F8FBFF36F8FFEE73846BDE8F081C9
:104E3000FC0000200449086818B10868026D521C83
:104E40000265086870470000A800002010B5031F25
:104E50004FF080741C601B1F21F001011960191FA5
:104E6000044B0B6014390A60091F6FF002024438CA
:104E70000A6010BDA14C00082DE9FC41054600EB7D
:104E800045011648002700EBC1048DF80070D4E9F5
:104E900000016A46FEF724FF114E38B156F825008E
:104EA000401C46F82500FFF7E1F914E09DF80000EA
:104EB00088B1ADF80470D4E9000101AAFEF734FF0F
:104EC0000028EBD1D4E90001FEF727FFBDF804006C
:104ED000E081BDE8FC81E089FBE7000030000020B4
:104EE000280100202DE9F041054600EB45017848F6
:104EF0008EB000EBC1040122A189A068FBF7BEFFC0
:104F00000220FBF7E5FD522020714FF000088DF8DC
:104F10003480FBF7B9FF06462BE0D4E900010DAA67
:104F2000FEF7CEFE88B16B49496C2B46CDE90001F6
:104F300069A2282102A8FBF78FFA014602A800F017
:104F4000ABF901200EB0BDE8F081FBF79DFF801B9F
:104F500064280BD92B4667A2282102A8FBF77CFA0C
:104F6000014602A800F098F90220EBE70220FBF7C7
:104F7000AFFD9DF834000028CFD0634E725DD4E9B8
:104F80000001FEF7EBFF60B100902B465FA22821E5
:104F900002A8FBF761FA014602A800F07DF90320A0
:104FA000D0E7705D2071D4E90001FEF73DFF60B1EC
:104FB00000902B465AA2282102A8FBF74DFA014681
:104FC00002A800F069F90420BCE7D4E9000101223D
:104FD000FEF772FF60B100902B4657A2282102A86D
:104FE000FBF73AFA014602A800F056F90520A9E7B6
:104FF000D4E900013222FEF7DFFF60B100902B46BA
:1050000053A2282102A8FBF727FA014602A800F0C4
:1050100043F9062096E7D4E900013222FEF7A6FF05
:1050200060B100902B464EA2282102A8FBF714FA8B
:10503000014602A800F030F9072083E7D4E9000117
:10504000FFF753F860B100902B4649A2282102A82F
:10505000FBF702FA014602A800F01EF9082071E7EA
:10506000FBF712FF07468DF830800BE0D4E9000112
:105070000CAAFEF735FE10B99DF8300050B9052096
:10508000FBF726FDFBF700FFC01BC828EED39DF8F9
:10509000300088B1D4E90001FEF73FFE705D00905A
:1050A0002B4638A2282102A8FBF7D6F9014602A810
:1050B00000F0F2F8002045E72B4637A2282102A88D
:1050C000FBF7CAF9014602A800F0E6F8092039E723
:1050D000300000203401002053256420626F6F747B
:1050E0002072633D25642065633D3078256C580D42
:1050F0000A00000053256420626F6F742074696D8C
:10510000656F75740D0A0000A067000853256420C0
:10511000736574616464722072633D25640D0A00D6
:105120005325642073656E736F72696E69742072A3
:10513000633D25640D0A000053256420646973747F
:105140006D6F64652072633D25640D0A00000000E8
:105150005325642074622072633D25640D0A0000AB
:1051600053256420696D702072633D25640D0A002B
:105170005325642073746172742072633D25640D3D
:105180000A000000532564206F6B204020307825F2
:105190003032580D0A000000532564206E6F2064E1
:1051A00061746120616674657220696E69740D0AAC
:1051B00000000000F0B51D4D87B0002404EB440052
:1051C00005EBC000002281898068FBF757FE641C54
:1051D000032CF3DB0A20FBF77BFC002404EB4400E8
:1051E000002605EBC00717E0761C032E0ADB2346DA
:1051F0000FA218216846FBF72FF90146684600F018
:105200004BF80EE0FFF732F8B9890022B868FBF7D7
:1052100035FE0520FBF75CFC2046FFF763FE002807
:10522000E2D1641C032CD9DB07B0F0BD30000020B4
:10523000532564204641494C0D0A000010B5002159
:10524000144C0A4601EB410004EBC000436973B102
:10525000042B10D0082B12D00C2B14D00069102B6B
:10526000006814D0C265491C0329EBDB10BD00693E
:1052700000684263F7E7006900688263F3E700694A
:105280000068C263EFE7006900680264EBE78265CB
:10529000E9E70000300000208AB201464FF0FF33FA
:1052A0000148FDF721BB0000F0020020D0E90132E7
:1052B00001699A60D0E901235A604A68824201D1AB
:1052C00082684A60002202610868401E086008681F
:1052D00070470000034B036003F15C00086080200E
:1052E00010607047DC090020044B036003F15C0090
:1052F00008604FF48070106070470000380C002088
:1053000000F108014FF0FF32C0E90112C1600161F4
:1053100000210160704700210161704730B50B68C2
:105320005A1C02D000F1080202E0026904E02246A1
:10533000546825689D42FAD953684B6099608A6029
:10534000516008610168491C016030BD42684A60D3
:1053500093688B6093685960916008610168491C8B
:1053600001607047502080F31188BFF34F8FBFF367
:105370006F8F0A494868401C486001280CD10848D2
:10538000006810F0FF0F07D0502080F31188BFF3A2
:105390004F8FBFF36F8FFEE7704700001C010020A6
:1053A00004ED00E00849486828B1401E486001D17A
:1053B00080F311887047502080F31188BFF34F8F1E
:1053C000BFF36F8FFEE700001C01002070B50028BE
:1053D0002AD0164DA0F1080460686969084207D117
:1053E000502080F31188BFF34F8FBFF36F8FFEE71C
:1053F00022683AB1502080F31188BFF34F8FBFF37A
:105400006F8FFEE78843606000F0A4F96068696808
:10541000084468602046FFF7BBFA2869401C2861F1
:10542000BDE8704000F0AEBF70BD0000FC00002081
:105430004FF0E02000210161816105494FF47A724B
:105440000968B1FBF2F1491E416107210161704712
:10545000A400002010B5FAF753FF114910280ED30D
:1054600000F1E02090F8F0030A78904207D2502033
:1054700080F31188BFF34F8FBFF36F8FFEE70948AA
:105480000068896800F4E060884207D9502080F302
:105490001188BFF34F8FBFF36F8FFEE710BD000081
:1054A0001C0100200CED00E010B5084B002200BFED
:1054B00053F832401CB1521C082AF9D310BD43F8EE
:1054C000321003EBC201486010BD0000C003002091
:1054D00010B504000AD000F013F894F84600002834
:1054E0000CD12046BDE81040FFF770BF502080F37C
:1054F0001188BFF34F8FBFF36F8FFEE710BD000021
:10550000084A002102EBC1035B68834206D10020F8
:1055100042F8310002EBC10148607047491C08297C
:10552000F0D37047C003002070B515460E46044600
:10553000FFF718FF94F944100020491C01D184F8AA
:10554000440094F94510491C01D184F84500FFF747
:1055500029FFA06B28B92A46314604F1240000F047
:1055600051F82046BDE87040FFF7C0BB10B50200FF
:1055700014D00F48006B38B1502080F31188BFF36E
:105580004F8FBFF36F8FFEE700F0E4F80021104665
:10559000FFF714F800F0F6FE002807D105494FF098
:1055A00080500860BFF34F8FBFF36F8F10BD0000B6
:1055B000A800002004ED00E002490A6A0260C96800
:1055C00041607047A800002001490120C861704770
:1055D000A800002010B50C4650B1094909681831DF
:1055E000FFF79CFE2046BDE810400121FEF7E6BF14
:1055F000502080F31188BFF34F8FBFF36F8FFEE70A
:10560000A800002070B514460D4668B10A49096823
:105610001831FFF79BFE0CB14FF0FF3521462846AD
:10562000BDE87040FEF7CABF502080F31188BFF379
:105630004F8FBFF36F8FFEE7A800002070B5040006
:105640003ED0226DA2B1E06C884200D30146E06AF0
:10565000884235D0012A33D11A4D2A6894420FD19D
:10566000502080F31188BFF34F8FBFF36F8FFEE799
:10567000502080F31188BFF34F8FBFF36F8FFEE789
:10568000E162A269002A02DBC1F13801A1610E4E7C
:1056900000EB8000616906EB8000814210D1201D83
:1056A000FFF704FEE06A2969884200D9286100EB0F
:1056B000800006EB8000211DBDE87040FFF746BE6C
:1056C00070BD0000A80000200004002030B587B0A5
:1056D0000024039405AA04A903A80494FFF7FAFD83
:1056E000DDE903010094CDE90110002315A117485D
:1056F000059A00F0EFFC164D0028E8621FD000F07C
:10570000A3FE012809D0401C19D1502080F3118834
:10571000BFF34F8FBFF36F8FFEE7502080F31188E8
:10572000BFF34F8FBFF36F8F4FF0FF30A8620120A0
:105730006861EC6007B0BDE8304000F045B807B0E4
:1057400030BD000049444C450000000055480008A9
:10575000A80000200248016B491C0163704700004B
:10576000A8000020164810B5016B11B10121C161DC
:1057700010BD0021C1610169124A01E0B9B1491EA1
:1057800001EB810352F82330002BF7D001EB8103AA
:1057900002EB830202F1080453685B685360A34282
:1057A00001D15B685360DA680260016110BD50206E
:1057B00080F31188BFF34F8FBFF36F8FFEE70000B8
:1057C000A8000020000400201CB537480168374AB3
:1057D000914207D1502080F31188BFF34F8FBFF360
:1057E0006F8FFEE700683149491E884207D150207B
:1057F00080F31188BFF34F8FBFF36F8FFEE72C4903
:1058000008780190FF20087008788DF800009DF856
:1058100000009DF8002000F0F000904207D05020DA
:1058200080F31188BFF34F8FBFF36F8FFEE79DF8B2
:105830000000204C00F0500020700720A06005E020
:105840009DF8002052008DF80020401E9DF8002099
:105850001206F5D4A060032807D0502080F31188E9
:10586000BFF34F8FBFF36F8FFEE74FF44070A06020
:10587000019808700C482030016841F47001016003
:10588000016841F070410160FFF7D2FD00206060C7
:10589000FAF7FEFC0848016841F040410160FAF760
:1058A000E3FC00201CBD000000ED00E071C20F41D0
:1058B00000E400E01C01002034EF00E010B55020AF
:1058C00080F31188BFF34F8FBFF36F8F00F042FC5E
:1058D00018B104494FF080500860002080F311880F
:1058E00010BD000004ED00E010B50C4648B1844244
:1058F0000FD9502080F31188BFF34F8FBFF36F8F04
:10590000FEE7502080F31188BFF34F8FBFF36F8FF6
:10591000FEE70222002100F024F8002800D0846372
:1059200010BD38B50C4648B184420FD9502080F3E1
:105930001188BFF34F8FBFF36F8FFEE7502080F3C6
:105940001188BFF34F8FBFF36F8FFEE7022113461D
:1059500000220091114600F025F8002800D0846351
:1059600038BDF8B517460E46050013D005FB06F006
:105970005030FFF7F1F904000AD0002084F8460007
:1059800004F150023B46314628460094FEF792FF50
:105990002046F8BD502080F31188BFF34F8FBFF32E
:1059A0006F8FFEE738B5049D18B153B1CAB181B10C
:1059B00020E0502080F31188BFF34F8FBFF36F8F2B
:1059C000FEE7502080F31188BFF34F8FBFF36F8F36
:1059D000FEE7502080F31188BFF34F8FBFF36F8F26
:1059E000FEE739B1502080F31188BFF34F8FBFF32A
:1059F0006F8FFEE750241C46012384F846302B4667
:105A00000094FEF757FF204638BD000070B50D46E4
:105A1000040025D0FFF7A6FCD4E90F20216802FB83
:105A20000011A1600021A163216861600A46D4E9E8
:105A30000F01401E00FB0121E16021464FF0FF30C5
:105A400001F8440F487004F110008DB1FFF758FCC5
:105A500004F12400FFF754FCFFF7A4FC012070BD03
:105A6000502080F31188BFF34F8FBFF36F8FFEE795
:105A700021690029F0D000F04DFC0028ECD0044949
:105A80004FF080500860BFF34F8FBFF36F8FE3E795
:105A900004ED00E02DE9FF4782B01D468A464FF035
:105AA0000008040003D0BAF1000F08D011E0502024
:105AB00080F31188BFF34F8FBFF36F8FFEE7206C29
:105AC00038B1502080F31188BFF34F8FBFF36F8F31
:105AD000FEE7022D0AD1E06B012807D0502080F3A9
